:1000000000000120750300005D0300005F03000095
:1000100061030000630300006503000000000000AE
:100020000000000000000000000000006703000066
:1000300069030000000000006B0300006D03000076
:100040006F0300006F0300006F0300006F030000E8
:100050006F0300006F030000051700006F0300002E
:100060008D1A00006F0300006F0300006F03000093
:10007000391E00006F0300006F0300006F030000D3
:100080006F0300006F0300006F0300006F030000A8
:100090006F0300006F0300006F0300006F03000098
:1000A0006F0300006F0300006F0300006F03000088
:1000B000791D00006F030000000000000000000038
:1000C0006F030000891D0000991D00006F030000F0
:1000D0006F0300006F0300006F03000000000000CA
:1000E0000000000000000000000000000000000010
:1000F0000000000000000000000000000000000000
:1001000000000000000000000000000000000000EF
:1001100000000000000000000000000000000000DF
:1001200000000000000000000000000000000000CF
:1001300000000000000000000000000000000000BF
:1001400000000000000000000000000000000000AF
:10015000000000000000000000000000000000009F
:10016000000000000000000000000000000000008F
:10017000000000000000000000000000000000007F
:10018000000000000000000000000000000000006F
:10019000000000000000000000000000000000005F
:1001A000000000000000000000000000000000004F
:1001B000000000000000000000000000000000003F
:1001C000000000000000000000000000000000002F
:1001D000000000000000000000000000000000001F
:1001E000000000000000000000000000000000000F
:1001F00000000000000000000000000000000000FF
:10020000354936480A1A02D0072291438D463449AF
:1002100034480A1A06D00722914381F30988022242
:1002200082F3148830483149314A00F044F83148AB
:100230003149324A00F03FF831483249324A00F041
:100240003AF832483249334A00F035F832483349F7
:10025000334A00F030F833483349344A00F02BF881
:1002600033483449344A00F026F8344834490022EF
:1002700000F02CF833483449002200F027F83348C6
:100280003349091A082902DB002202604160314A21
:1002900090471F481F49884205D00268043003B4C4
:1002A000904703BCF7E700208646EC46002000217B
:1002B000294A9047FEE7884207D0521A05D00378B2
:1002C00001300B700131013AF9D17047884202D0F8
:1002D00002700130FAE770470000012000E00020C2
:1002E0000000012000000120442B0000000000203D
:1002F00048000020D0030000D0030000E6260000E4
:10030000442B0000000000200000002034270000E3
:100310003427000034270000342700003427000071
:10032000342700003427000034270000422B00004F
:100330008C2B0000480000204800002048000020CE
:100340002409002024090020240900202409002079
:10035000242900209D0300009D1E0000FEE7FEE70B
:10036000FEE7FEE7FEE7FEE7FEE7FEE7FEE7FEE765
:1003700000F002B8FFF7FCBF0F484FF007018843B9
:1003800085460E4880470E48016841F470010160BF
:10039000BFF34F8FBFF36F8FFFF732BF09480A4992
:1003A0000A4A884207D0521A05D0037801300B70F0
:1003B0000131013AF9D17047000001207522000097
:1003C00088ED00E03427000000000020000000203D
:1003D000037813F0040216D003F00303012B03D0BB
:1003E000022B09D0012070470A6800880232C0F34E
:1003F000831002440A60F5E70B684288023303EB7E
:1004000092130B60EEE71046704700002DE9F04FA5
:10041000044685B0861C00200F46154600F0AAFC55
:10042000454801683960D0E90132134401335B1A51
:10043000824600F21C4700F5836900F21448B3427B
:100440001BD30020002D72D004F00F039B0143F05A
:10045000050363F30F00DAF80020DAF808301340E0
:10046000033316444AF823000020CAF8006000F065
:1004700083FC012005B0BDE8F08F0121384600F073
:10048000A0FC484600F0B5FC404600F0B2FCDAF8AB
:100490000400DAF808B0009000EA0B0003300AEB21
:1004A00080006946FFF794FF009B50BB0BEA0302F4
:1004B0000AEB820203F1020CD2680192013303EAD3
:1004C0000B0B0AEB8B0B02F00302012ADBF80C107A
:1004D000CDF800C023D0022A16D08346404600F053
:1004E0008BFC10B1009BCAF804305946384600F026
:1004F00068FCDAE901231344DAF8002001339B1A7F
:100500009DE70BEA0300C9E7BDF80630C3F3891382
:1005100003334FEA114B0CEB93030093DEE7BDF876
:100520000430C3F383134FEA114B6344F5E7A4058A
:1005300044F006008FE700BF180100200B4B0C4869
:10054000FF2210B59A600022C3F81824C3E90022E4
:10055000C3F8142483F8202400F0B9FE044610B92F
:10056000044800F022FF204610BD00BF1801002003
:10057000202700004C27000030B50A4C71B10A4A10
:100580000A49121BD20800239A4201D1002030BD33
:1005900031F82350854202D00133F5E7034654F881
:1005A0003300F4E7E82600001027000000000020D8
:1005B000094B013903EBC000032909D8DFE801F03A
:1005C0000A0204060420704700797047407970479A
:1005D0000020704702207047E8260000034BD3E953
:1005E0000030C31A58425841704700BF180100201C
:1005F0002DE9F04385B0FFF7F1FF0646002840F0F3
:10060000F5807B4DC5F81804BFF34F8F6B68AC685D
:1006100000932340033305EB83006946FFF7D8FEC0
:10062000009B18B1D5F81824002A5FD004EA030211
:10063000991C013305EB8202234005EB8303D2684A
:10064000DB68029302F00303022B0192009160D158
:10065000BDF806306748C3F38917502FB84628BF46
:100660004FF0500868F38F1308F10801ADF8063019
:1006700000F045FE0646002800F0A38000F06EFE64
:100680000023082201A9304600F07BFE009924EAED
:1006900001020132B8EB820F4FEA820332D95FFACE
:1006A00088F85BB32140DCB2A8EB040803315FFAA1
:1006B00088F9A046504C05EB81010823424630469C
:1006C00000F05FFE34B108F108034A462146304687
:1006D00000F057FE009B033703EB97070097D5F810
:1006E0001834002B49D1D5F8104459E02A689A42B1
:1006F0008FD86A60304605B0BDE8F0833E491C469D
:100700009946DAE70C40E11C0823424605EB8101DB
:10071000DDE7012B55D1BDF804303648C3F3831112
:10072000062928BF062161F3891302318900ADF83B
:10073000043000F0E4FD0646002842D000F00EFE32
:100740000023082201A9304600F01BFE0027BDF857
:100750000420C2F38312BB00974203F10803BED208
:1007600000994A1C21400331009205EB81010422CB
:10077000304600F006FE0137E9E7304600F0F2FDB2
:10078000FFF72CFF80F00100C6B2B3E7E3685B79A6
:1007900023B1236831461B6820469847E3681C68EC
:1007A000002CF3D1304600F0DDFD204600F0E2FAE7
:1007B000D5F818340BB9009B6B60002000F0DCFA10
:1007C000DEE7D5F8104454B90C4B0D480D49C01A5A
:1007D000C008000440F0020000F062F8D0E723688F
:1007E00020469B689847E3681C68ECE7002681E791
:1007F000180100202027000024010020E826000026
:1008000008270000342700002DE9F74F224D044649
:100810000F46924601A901221846D5F808909B463A
:10082000FFF7F4FD20B3019E4FF00008B21CD8453D
:1008300008EB020126D11948002100F09FFA80F34D
:100840001000000440EA1440E400731C04F0380473
:1008500003EA090306EA090644F0010405EB8303F1
:10086000033644EA881444EA8724D86045F82640D1
:1008700095F820341BB1FFF7BBFE0028FBD103B075
:10088000BDE8F08F09EA010105EB81015AF8283033
:10089000CB6008F10108CAE71801002034050020E8
:1008A00000231A46FFF7B0BF07B50123019201AA42
:1008B000FFF7AAFF03B05DF804FB000030B50F4955
:1008C000D1F8102403460020144634B9DC682071A6
:1008D0004AB9C1F81034226030BDE46825798542F8
:1008E00006D02468F1E7D268116821601360F3E74D
:1008F00001300A28E8D14FF0FF30EDE71801002061
:10090000094A38B50123D2F8104482F820341D4634
:1009100004B938BDE3685D71236820465B68984779
:10092000E3681C68F4E700BF1801002008B500F078
:1009300046F804480421FFF7C1FF034B01225A7116
:1009400008BD00BF10270000000000207047000015
:1009500007B5044B0093044A402300F032F803B07B
:100960005DF804FB6D090000D50500202DE9F84372
:1009700088461446B2B10F4B0F4E0325002743F0B3
:100980000109224608EB0701002001F003FC07449F
:10099000241A48B933782BB14FF47A40C847013D47
:1009A00002D13570BDE8F88301233370002CE8D103
:1009B000F8E700BF70270000D4050020704701F061
:1009C0001DBCF0B595B01D46164608460C4600F015
:1009D000C5FC1A9B0D93CDE9086500252B4608221E
:1009E00005A920460A958DF82C500C9500F0D3FCF3
:1009F000079B0293069B03939DF814308DF81150CA
:100A000003F00302012A1DD1BDF81420059DC3F394
:100A1000C203C2F383168DF81030B20008230EA96A
:100A2000204600F0B8FCC5F3952508AB009332468C
:100A300002AB0EA9284600F085F8204600F092FC93
:100A400015B0F0BD022AF8D1BDF81650C3F3C203A9
:100A5000C5F389158DF810300827082D2E4628BFBC
:100A600008263B4632460EA9204600F094FCAD1BFA
:100A700008AB02AA31460EA8374400F0C7F8002D93
:100A8000EBD1DAE707B503460846197A052911D0F4
:100A90005B7A2BB1094A0A49019000F007FA0198E4
:100AA0000849019000F002FA019803B05DF804EBE8
:100AB00000F0F1B9002AF8D0F2E700BF8427000067
:100AC00089270000A927000030B5C38885B00446F7
:100AD0000D4633B1144A00921449154A284600F0D5
:100AE000E5F9217A05291DD0637A4BB1A088FFF77B
:100AF0005FFD104B104953F82020284600F0D6F92E
:100B0000227A0E4BA08853F8222003920021FFF78F
:100B100033FD039A0A490346284605B0BDE8304034
:100B200000F0C4B905B030BD842700009427000050
:100B30008C270000102800008927000034280000BE
:100B4000AC2700002DE9F04385B01F460C9D002323
:100B500095F80C902B7306460C469046294638466D
:100B6000FFF7B2FFB8F1060F09D8DFE808F004126A
:100B7000181F283340003146284600F097F900221C
:100B800029463846FFF77EFF85F80C9005B0BDE892
:100B9000F08322683146284600F088F9EFE7D4E96F
:100BA00000233146284600F081F9E8E7A368009366
:100BB0003146D4E90023284600F078F9DFE7E368FE
:100BC0000193A36800933146D4E90023284600F03E
:100BD0006DF9D4E723690293E3680193A368009356
:100BE0003146D4E90023284600F060F9C7E763697D
:100BF000039323690293E3680193A368009331464A
:100C0000D4E90023284600F051F9B8E708292DE976
:100C1000F74F80460E4617461C463CD8002593F8F1
:100C20000C901D7319461046FFF74EFFDFF888A0A1
:100C3000DFF888B0AE4231D918F805205946204671
:100C400000F034F90135082DF4D11949194DDFF8B8
:100C500070A0204600F02AF94FF0000B5E4522D923
:100C600018F80B207E2A05D81046019201F088FC66
:100C7000019A00B92E225146204600F017F90BF1D7
:100C8000010BBBF1080FE9D1012221463846FFF7DD
:100C9000F9FE84F80C9003B0BDE8F08F5146204671
:100CA00000F004F9CEE72946204600F0FFF8E6E719
:100CB000C0270000BE270000BC270000B6270000A8
:100CC000C22700001FB50021039001AA44F20100D1
:100CD000CDE9011100F004F805B05DF804FB000057
:100CE00010B572B6FFF70CFEFFF782FC0028FBD1AF
:100CF000104B114C1149E41AE408240444F001009B
:100D0000FFF7CEFD0E4B1B68DB0700D500BE0D497B
:100D100044F00200FFF7C4FDBFF34F8F0A490B4BAD
:100D2000CA6802F4E0621343CB60BFF34F8F00BF89
:100D3000FDE700BFE8260000082700004828000063
:100D4000F0ED00E05428000000ED00E00400FA059A
:100D500072B6024A13680133136070471806002008
:100D6000034A1368013B136003B962B6704700BFC2
:100D700018060020FFF7ECBFFFF7F2BF10B50346DF
:100D800053E8000F0A4643E8002494F0000FF7D11F
:100D900010BD10B5034653E8002F42EA010043E8B6
:100DA000000494F0000FF6D110BD10B5034653E8CF
:100DB000000F00EA010243E8002494F0000FF6D18E
:100DC00010BD10B5034653E8002F02EB010043E8C5
:100DD000000494F0000FF6D110BD10B5034653E89F
:100DE000002FA2EB010043E8000494F0000FF6D1BD
:100DF00010BD0121FFF7CDBF0021FFF7D6BF10B511
:100E000090B1D0E9012301689B1ADBB20A60013B73
:100E1000DBB2FF2B026802D10020107110BD1168F7
:100E20004C1C14600B70F2E70E20F7E738B504464F
:100E30000020FFF79FFF226863681168994213D969
:100E4000481E106011F8015CE368218A01FB05353A
:100E5000A36811791B1ADBB2994200D213710020EA
:100E6000FFF78AFF284638BD0025F8E738B5054664
:100E700000200C46FFF77EFF2A681368591C11609A
:100E8000E968641A298AB4FBF1F41C70BDE83840A3
:100E90000020FFF771BF826810B504462AB143698C
:100EA0000168006998470023A36010BD0EB403B524
:100EB000039921B104AB01AA019300F077F802B0C5
:100EC0005DF804EB03B070470A2938B504460D46B7
:100ED00002D10D21FFF7F8FFA3682268591CA16019
:100EE000D554D4E901329A4204D32046BDE83840B3
:100EF000FFF7D1BF38BD00002DE9F84F9846DDE976
:100F00000A43154682460F460A464FF00109AA4297
:100F10000FD2C14538BFC14613F0010B01D16CB9E6
:100F200000240126B8F1010F1BD908F1FF386E43E8
:100F3000F8E709F10109B2FBF5F2E8E79B070ED5E6
:100F4000B8F1000F0CBF30262026A145E9D2013CA4
:100F500031465046FFF7B8FF002CF6D1E0E72026D7
:100F6000F3E7B7FBF6F39D42E1D9DFF83C80B7FB2E
:100F7000F6F3504618F8031006FB1377FFF7A4FFAB
:100F80003346AB42B6FBF5F6F1D2BBF1000F02D00F
:100F90000CB1A14501D3BDE8F88F20215046013C9A
:100FA000FFF792FFF4E700BF612800002DE9F74F3B
:100FB000054617468846002900F0428118F8011BB3
:100FC00049B92B7B002B00F03B81284603B0BDE8DC
:100FD000F04FFFF760BF252940F0B780002698F852
:100FE00000302D2B424608F1010823D0302B24D0AD
:100FF0002B2B25D000242A2B02F1010123D13B68A1
:101000001A1D1B683A601C440A4613782E2B26D101
:1010100001324FF0000A104610F8011BA1F1300C0C
:10102000BCF1090F1DD80A2303FB0A13A3F1300AF0
:101030000246F0E746F00106D1E746F00206CEE7A9
:1010400046F00406CBE711F8013CA3F13000092873
:10105000DBD80A2202FB0434303C0A46CBE74FF0CF
:10106000000A12F8011B01F0FB0068289046F8D036
:10107000782909D86F290CD8632962D022D825296C
:1010800063D0582900F0888098F80030002B95D163
:1010900097E770390829F7D801A353F821F000BF6A
:1010A0001B1200008910000089100000A911000027
:1010B00089100000871100008910000089100000CD
:1010C00099110000642901D06929DDD13A68D2F86C
:1010D0000090111D89EAE9723960A2EBE9724FF0C4
:1010E000010B092A35DCD34538BFD3462CB1B9F101
:1010F000000F01DB720700D5013CB30702D5BAF13E
:10110000000F03D0F00701D44CBB0024B9F1000F4D
:101110002DDAC9F100092D212846FFF7D5FE06F08A
:101120000302022A04D1BAF1000F01D11CBB002432
:10113000CDE9004653460A2249462846FFF7DCFE21
:10114000A2E73B681A1D19783A602846FFF7BCFEF3
:101150009AE70A230BF1010BB2FBF3F2C1E7A345B7
:10116000D4D220212846013CFFF7AEFECCE7710720
:10117000D5D52B21D0E7A345DAD230212846013C32
:10118000FFF7A2FED2E73968CDE900460A1D3A60B2
:1011900053460A220968D0E739680A1D3A60CDE94A
:1011A000004653461022F5E73B681A1D3A6016F0D8
:1011B0000106D3F8009028D1B9F1000F03D04846BA
:1011C00001F061FA0646B44200D904BB09F1FF39C7
:1011D00019F8011F00293FF457AF2846FFF774FEA6
:1011E000F6E728460136FFF76FFE19F806100029CA
:1011F000F7D1A642BFF448AF002C3FF445AF202101
:101200002846013CFFF760FEF3E70026EDE72021CA
:101210002846013CFFF758FED5E73B681A1D3A60A7
:10122000302128461C68FFF74FFE78212846FFF73B
:101230004BFE00220823CDE90032214610227CE734
:1012400003B0BDE8F08F00BF2DE9F84FB0F806A05D
:101250004579D2F800B09DF828900AFB05F5043DC9
:1012600088460BEB0301A94203F1040488BFA5EBF8
:10127000030BB4FBFAF607460AFB1644C2F800B0AB
:101280004EB9AAEB04055D4528BF5D46BBF1000FD2
:1012900004D1BDE8F88F3F68013EF1E7043408EB64
:1012A00006003C442A46B9F1000F0DD02146ABEBB5
:1012B000050B01F06AF9DA452E443F6855464FF0B8
:1012C000000428BF5D46E1E701462046EFE7FFF74F
:1012D00096BDF8B546790146721E05460023934235
:1012E0002D6803D30024A64202D8F8BD0133F6E7E7
:1012F0000F682846FFF7BAFD01343946F3E72DE9B8
:10130000F843068ACD1C0746FFF790FD043E35449E
:101310000446B5FBF6F5F0B14FF48073EDB283806F
:10132000C680013D076081464FF00008A84512D2F3
:101330003846FFF77BFD064648B163790133637198
:1013400008F10108C9F8000007608146EEE7204671
:10135000FFF7BFFF34462046BDE8F8830121043083
:10136000FFF72FBD10B5012104460430FFF735FD0E
:1013700010F0FF0F04D12046BDE81040FFF7A9BFD1
:1013800010BD1FB503920022009203AAFFF75CFF75
:1013900005B05DF804FB1FB503920122009203AA79
:1013A000FFF752FF05B05DF804FB836800225A6026
:1013B000C3E904229A60DA601A607047034B187818
:1013C00010B901221A707047852070471C06002052
:1013D00000F1804000F5C040002382B00360036844
:1013E0000193019B02B07047800000F1A040D0F84B
:1013F000002722F44032C0F80027D0F8003743EA33
:101400000141C0F800177047054B4FF0FF32072825
:1014100043F8202084BFC01880F83C20704700BFEC
:101420002006002010B5174C94F8493043BB04F156
:1014300024032021FF22013911F0FF0103F8012BC1
:10144000F9D1C8B2FFF7E0FF01310929F9D104222F
:1014500000210D4801F0C2F80C4BC02283F806238E
:1014600040221A604FF4BE70FFF7B2FF084B4FF0F6
:101470000042C3F80423012384F84930002010BD42
:101480000820FCE7200600206506002000E100E0BF
:101490000060004030B52E4B1A1892F924400134F8
:1014A00053D18C78002C4CD01C46002254F8045B9D
:1014B000013541D11C1884F82420002443F822402F
:1014C000920002F1804202F5C0420B78D2F810552A
:1014D0004C7825F498151B04240525F4F85504F4DC
:1014E000801403F44033C2F8105523430402D2F8A9
:1014F000105504F4F85423432B43C2F810354A78AE
:101500000123012A4FF0A04203FA00F30CBFC2F8F6
:101510000835C2F80C3500F5E073032142F82310BA
:10152000C2080C49012300F0070003FA00F08B5CAD
:1015300018438854002003E00132082AB6D1042061
:1015400030BDFE2382F82430D9E70820F8E700BF39
:101550002006002065060020074B184490F924302F
:101560009B0003F1804303F5C043D3F8102542F0FC
:101570000302C3F81025704720060020054B1844CD
:1015800090F924008000C0B200F1804000F5C04016
:10159000704700BF20060020F0B5364D2C1894F996
:1015A0002440002C64DA8C78C4F34004002C0BBF78
:1015B0000823002309260826B34201D10420F0BDE8
:1015C00055F8237001373FD12E1845F8232086F8AF
:1015D000243014B9EA1882F83C008A78540713D4EE
:1015E000D60733D5820002F1A042D2F8004724F09A
:1015F0000204C2F80047204EC20800F00707012489
:10160000BC40B75C3C43B4548A780C7812F00202B8
:1016100025D09B0003F1804303F5C0430202D3F8B9
:10162000101521F4473121F44071C3F8101524043A
:10163000D3F8101502F4F85204F4403422430A435C
:10164000C3F810250020BAE70133B5E74C7800F560
:10165000E0724FF0A046A40046F82240CBE7083BDA
:101660002B4493F8441041EA841483F84440E9E79A
:101670000820A4E7200600206506002038B51F4C8E
:10168000251895F92420072A16DD224492F83C30CB
:101690009B09032B0BD14FF0A043D3F81015C14089
:1016A00001F001010231BDE83840FFF79DBE012B7A
:1016B0000CBF02210321F6E7D3B2072B1CD89300FD
:1016C00003F1804303F5C043D3F8100540F0010057
:1016D000C3F8100502F14000800080B2FFF778FEE9
:1016E00051B195F9243054F823302BB1012303FA7A
:1016F00002F2034BC3F8042338BD00BF20060020CC
:10170000006000402DE9FF470024574D01944FF43D
:101710008072012102F1804303F5C04390B21B683F
:10172000012B06D1D5F804330B4202D0FFF750FE4F
:101730000C430432B2F5907F4FEA4101EAD14B4BA2
:101740001B68012B0AD14FF4BE70FFF741FE4FF02A
:10175000A04344F00044D3F81035019314F0FF0F78
:101760001AD0434F00250126344210D0AB0003F1BC
:10177000804303F5C043D3F81005D3F8101557F88C
:10178000253023B1C1F30141C0F30420984701354E
:10179000082D4FEA4606E7D1002C62DA00224FF00E
:1017A000FF33CDE90223324F4FF001090DF1080854
:1017B00097F9443097F84440013324F0C00550D0E5
:1017C00004AA02EBD50104F0070311F8042C09FA6E
:1017D00003F31A424FEAD50043D07A19A40992F9CB
:1017E000242057F822603EB9032C3AD118F8002083
:1017F0001A4308F8002001E0032CF7D005F5E07249
:101800004FF0A04011F80C1C50F822201942C2F3EE
:10181000014205D0022A24D1032C20D1214604E024
:10182000032A1ED1032C1AD102212846FFF7DCFD22
:101830003EB14FF0010A21462846B047BAF1000FE9
:101840000FD04FF0A043019AD3F81035934208D03F
:101850000193029B0393ABE74FF0000AEBE7002EE6
:10186000FAD104B0BDE8F087006000407C61004020
:10187000200600202DE9F84F134DDFF85080074671
:101880004FF0000A04264FF001095FFA8AFB00209E
:1018900009FA0BF4FFF76EFA2C420AD0D8F80030A0
:1018A00014EA030201BF2343C8F8003087F800B0F0
:1018B00016460020FFF760FA1EB1A5430AF1010A9F
:1018C000E3D13046BDE8F88FFFFF0F006C06002023
:1018D00010B5A1B19AB101238340C3F3130484B1BD
:1018E0000A4C246823420ED0C00000F1804000F56D
:1018F000F830C0F81015C0F81425002010BD0E20D7
:10190000FCE70720FAE70820F8E700BF6C06002094
:10191000012303FA00F0C0F313031BB1054B1B684E
:10192000184204D0044BC3F8040500207047082077
:10193000704700BF6C06002000F00140F7B5067943
:101940002F4D0C237343EF183C7A002C56D1EA50EC
:101950004B687B60477903682246D0B2874244D8FF
:1019600043F30734C878002CA8BF04F16047C3F3E1
:101970000732BABF234F02F00F0C07F561474FEA59
:101980004010C0B2B4BF07F80C0087F80003640928
:1019900001201D4F02F01F0200FA02F247F8242036
:1019A000D3F804454A7824F0030402F003022243EA
:1019B000C3F80425D3F808458A7824F0030402F01C
:1019C00003022243C3F808250A78D3F8104502F031
:1019D0000F0224F00F010A43C3F810250C2303FB68
:1019E00006552872002003B0F0BD900000F5A070ED
:1019F00001321C50185801900198AEE70820F2E718
:101A00007006002014ED00E000E100E00368012210
:101A10001A600379034A0C2101FB032302221A7284
:101A2000704700BF7006002003680122DA6070472B
:101A300037B54FF4803400688C407BB18B0003F5E0
:101A4000A0730025C550C3580193019BC0F80443FF
:101A500001F5A87140F8212003B030BDC0F808435B
:101A6000F6E770B4046840F20116D4F800528E40D4
:101A700025EA0605C4F80052D4F800522B43C4F8F6
:101A800000329DF80C3070BCFFF7D2BF2DE9F34156
:101A9000104C114F114E00254FF48038236883B14C
:101AA000D7F8043308FA05F21A420AD0002323605B
:101AB00023680193A4F50040019B80B2D6E9003170
:101AC00098470135042D04F10404E7D102B0BDE8C4
:101AD000F08100BF4081004000800040700600207F
:101AE0000023435082B043580193019B02B07047DA
:101AF000D0F8103170B505460C4653B14FF48871DB
:101B0000FFF7EEFF63795A0703D523680BB1012075
:101B10009847D5F814315BB14FF48A712846FFF726
:101B2000DFFF63791B0703D523680BB102209847B9
:101B3000D5F81C315BB128464FF48E71FFF7D0FF0A
:101B4000607910F0100002D1236803B19847D5F8EE
:101B5000043163B14FF482712846FFF7C1FF0123BE
:101B6000237123681BB1BDE870400320184770BD86
:101B700038B51D4602230B710B684A7104467BB1D0
:101B800012F0040F0CBF82219221100748BF41F0D0
:101B90002001D306236848BF21F08001C3F8001359
:101BA00020684FF48271FFF79BFF206812F0800FCE
:101BB00005BF012343514019002038BD2DE9F04FE6
:101BC0004B4D077905EBC70385B01B7906460C46DC
:101BD0004FEAC709002B40F0888045F837200139CB
:101BE0006A4604F103084FF0010A4FF0A0404FF09D
:101BF000030B11F801CFBCF1FF0F72D02CF0800362
:101C000013600AFA03FE03F5E0731CF0800F14BFA3
:101C1000C0F808E5C0F80CE540F823B0414502F1F2
:101C20000402E6D13068009BC0F86035019BC0F823
:101C30006435029BC0F86835039BC0F86C350123FE
:101C4000C0F80035A27923896179C0F80C15C0F875
:101C50000425C0F808356389C0F810350023C0F8A2
:101C600000324FF48E71C0F80033FFF739FF30684F
:101C70004FF48871FFF734FF30684FF48A71FFF733
:101C80002FFF30684FF48271FFF72AFF55F8373085
:101C900003B33368227943F307310029A8BF01F168
:101CA0006040C3F30733BCBF03F00F0411484FEA91
:101CB0004212A8BF00F56140D2B2B4BF025580F80D
:101CC000002303F01F03012202FA03F349090A4A21
:101CD00042F821304D4401232B71002005B0BDE8AE
:101CE000F08F4FF0FF33136098E70820F6E700BF4E
:101CF0007C06002014ED00E000E100E0F0B50E46A7
:101D00001D461C4903790468D6F800E0B6F804C003
:101D1000B768C4F820E501EBC301F368C4F824C533
:101D2000C4F82875C4F82C35C4F840E5C4F844C597
:101D3000C4F84875C4F84C3502F0010303EB5202B5
:101D4000C4F81425EA0712D415F0020203D0002BC0
:101D500014BF08220422002BC4F8002218BF0C2351
:101D6000EAB208BF0823BDE8F040FFF701BF102228
:101D7000F1E700BF7C06002001490248FFF7B8BE2A
:101D80007C06002000C0014001490248FFF7B0BEB8
:101D9000840600200010024001490248FFF7A8BE57
:101DA0008C06002000200240704700000E4B07B553
:101DB0001A68022A02F101010ABF002219601A60A2
:101DC0001A680A4B53F8222000214FF47A704243DC
:101DD000009107480123FFF744FE054803B05DF872
:101DE00004EBFFF721BE00BF94060020080000208E
:101DF0002800002008B50B4B0B481B680B4901223B
:101E00001A610B4BC01AC008000440F00300FEF733
:101E100047FDFEF7EDFB0028FBD1064B01221A60BF
:101E200008BD00BF1400002008270000862800001D
:101E3000E826000000C0004008B5134B1348D3F853
:101E40000825D3F808351249920544BF6FEA835339
:101E50006FEA9353002B0F4AB8BF03339B101360F4
:101E60000D4B1268C01AC008000440F00300FEF7D2
:101E70001BFD054B0022C3F8002101225A60FEF72A
:101E8000B7FB0028FBD108BD00C0004008270000B8
:101E90009728000098060020E826000030B54FF48F
:101EA00080418FB00020FEF749FB08B1FEF70AFF22
:101EB000FEF73CFD6448654B6549C01AC008000444
:101EC00040F00300FEF7ECFCFEF792FB0028FBD18C
:101ED000FFF774FA08B1FEF7F5FEFFF7A3FA08B1B1
:101EE000FEF7F0FE5B4A92E8030005AB83E80300CF
:101EF000594A5A481946FFF721FD08B1FEF7E2FE9C
:101F0000574B0AAC1A889B78ADF82820214611203F
:101F1000A370FFF7BFFA08B1FEF7D4FE514B1A6861
:101F200000214FF47A70424300914C480123FFF79F
:101F300098FD07A8FFF79EFC08B1FEF7C3FE474DCA
:101F40002968112001F5A0710391FFF717FB039990
:101F500002469DF81C00FFF7BBFC08B1FEF7B2FE7D
:101F60009DF81C00FFF7D4FC08B1FEF7ABFE112072
:101F7000FFF7F2FA3C4B39484FF480521A603B4A63
:101F800000230121C2F80413C2F800310093384A3B
:101F90000223FFF766FD2046FFF76CFC08B1FEF751
:101FA00091FE2968314A9DF8280001F5A271FFF7DA
:101FB0008FFC08B1FEF786FE9DF82800FFF7A8FC0D
:101FC00008B1FEF77FFE2548FFF720FD294B1A8850
:101FD0009B78ADF82820A370274A032321460D20C3
:101FE0008DF82930FFF7D8FA08B1FEF76BFE012112
:101FF0000D20FFF743FB214A21460E20FFF7CCFAC4
:1020000008B1FEF75FFE01210E20FFF737FB1C4AE7
:102010001068516807AB03C3906818600022194824
:1020200007A9FFF7CBFD08B1FEF74CFE164B0FCB0F
:1020300084E80F000223012212482146FFF75EFECA
:102040000A4B01221A60FEE708270000E82600007C
:10205000AE280000C4280000A91D000028000020B0
:10206000CC2800000800002000E100E000C0004093
:1020700020A10700CF280000AD1D0000F51D0000C5
:10208000D228000014000020E02800000369C16885
:102090008B429DBF8268D21802F1FF3203F1FF33F9
:1020A00094BF501A581A70472DE9F843D0E90294AA
:1020B0000546A9EB04084068904520440F461444A7
:1020C00004D900F062FAEC60BDE8F8834246A4EB64
:1020D000090400F05AFA6868224607EB0801F0E7A5
:1020E0002DE9F843C5680646894617464FF00008B3
:1020F0003469B3687068A54228BFE418013C621BCC
:102100005C1BBC4228BF3C46944228BF144649464B
:102110002844224600F039FAB3682544AB4208BF90
:1021200000253F1BA044A144F560E1D14046BDE835
:10213000F883000010B5114C114AA2610223C4E9D2
:102140000433104BE361A2644FF400730E4A0F494D
:102150002362E26400231022E01DA3626362E36253
:10216000A3656365E365226500F06BFA08492046C4
:1021700000F067FA2023A37110BD00BF9C06002069
:10218000F02800002407002014070020F928000090
:10219000FD280000F8B5184C182300FB033503FB9D
:1021A00000402544C46A012C0F4616460FD0022C6D
:1021B0001AD0F4B92846FFF769FF864205D832469F
:1021C00039462846FFF770FF34462046F8BD2846BA
:1021D000FFF75CFF8642344628BF04462246394654
:1021E0002846FFF761FFF0E72846BDE8F840FFF713
:1021F00077BF0024E9E700BF9C060020FFF79ABFE5
:102200000C4B1B78062B10D10B4B1B681A070CD1FB
:102210000A4B186800F0F003302B08D000F0E00003
:10222000A0F14003584258417047002070470120F8
:10223000704700BFE00F00F0E40F00F0E80F00F07F
:10224000094B1B78062B0CD1084B1B681A0708D1C9
:10225000074B186800F0F000A0F1300358425841D5
:1022600070470020704700BFE00F00F0E40F00F05F
:10227000E80F00F008B5FFF7C3FF28B17D4B7E4A99
:102280001B68C3F304231360FFF7DAFF10B17B4B25
:102290007B4A1A60FFF7B4FF28B17A4B7A4A1B6871
:1022A000C3F342331360FFF7CBFF20B1774AD36803
:1022B00023F08073D360FFF7A3FF40B14FF080435A
:1022C0000022C3F80C21C3F81021C3F83825FFF70A
:1022D000B7FF10B16E4B03221A60FFF7B1FF40B198
:1022E0006C4B05221A6001229A6700229A603F22F5
:1022F0005A60694B1B78062B50D1684B1B68190735
:102300004CD1674B1B6803F0F003502B46D14FF0C4
:102310008052644BD2F80414C3F82015D2F8081484
:10232000C3F82415D2F80C14C3F82815D2F81014E9
:10233000C3F82C15D2F81414C3F83015D2F81814B9
:10234000C3F83415D2F81C14C3F84015D2F8201481
:10235000C3F84415D2F82414C3F84815D2F8281449
:10236000C3F84C15D2F82C14C3F85015D2F8301419
:10237000C3F85415D2F83414C3F86015D2F83814E1
:10238000C3F86415D2F83C14C3F86815D2F84014A9
:10239000C3F86C15D2F84424C3F87025FFF730FF5A
:1023A00028B1414B414A1B6803F04F031360FFF70C
:1023B00027FF48B14FF08043D3F80024D20744BF31
:1023C0006FF00102C3F80024394B1B68062B08D1BB
:1023D000384B1B68062B01BF374A136843F48063F0
:1023E0001360364AD2F8883043F47003C2F888305C
:1023F000BFF34F8FBFF36F8F4FF01023D3F800223E
:10240000002A03DBD3F80432002B2FDA2C4B0122F5
:10241000C3F80425D3F80024002AFBD04FF0102283
:102420001521C2F80012D3F80024002AFBD04FF087
:1024300010231522C3F80422214B1A46D3F80014A6
:102440000029FBD00021C3F80415D2F80034002B7A
:10245000FBD0BFF34F8F19491A4BCA6802F4E062F0
:102460001343CB60BFF34F8F00BFFDE7164B174AF6
:102470001A6008BD240300104035014074C00740B5
:102480000DF0ADBA440200103C050040F0ED00E054
:10249000A005004010560040E00F00F0E40F00F0EF
:1024A000E80F00F000C0004058020010E40E0040A9
:1024B00030010010340100103C17004000ED00E036
:1024C00000E001400400FA05300000200090D00335
:1024D0007F2805D8034B185C034B5B5C18407047A2
:1024E000002070471029000090290000A0F161032E
:1024F000192B98BF20387047A0F14103192B98BFC2
:10250000203070477F2805D8034B185C034B5B5C79
:1025100018407047002070471029000090290000E3
:10252000A0F16103192B98BF20387047A0F1410337
:10253000192B98BF203070477F299ABF0170012066
:102540006FF02E0070475AB10A787F2A0AD800B17E
:102550000260002119605960501A18BF01207047AD
:10256000002070476FF02E007047000008B5034B45
:102570005B689B681B68984708BD00BF340000205B
:1025800008B50921FFF7F2FF08BD844640EA0103C0
:1025900013F0030F18D18446202A0BD32DE9F0073E
:1025A000B1E8F807A0E8F807A2F12002202AF7D244
:1025B000BDE8F007042A07D351F8043B40F8043B78
:1025C000A2F10402042AF7D2002A05D011F8013B37
:1025D00000F8013B013AF9D1604670478446002A71
:1025E0002DD010F0030F04D000F8011B013A26D0C3
:1025F000F7E7C9B241EA012141EA0141202A12D399
:10260000A2F120022DE9F0030B460C460D460E46C2
:102610000F4688468946A0E8FA03203AFBD2BDE877
:10262000F00320320BD0042A05D340F8041B043AEF
:1026300005D0042AF9D200F8011B013AFBD160460B
:102640007047024610F0030F16D111F0030F13D19B
:102650002DE9F0004FF001374FF0803351F8044B73
:10266000A4EB070525EA04051D4002D142F8044BFE
:10267000F4E7A1F10401F0BC11F8013B02F8013BC1
:10268000002BF9D1704700F1010110F0030F11D0B8
:1026900010F8012B002A23D010F0030F0AD010F8F5
:1026A000012B002A1CD010F0030F03D010F8012BCF
:1026B000002A15D02DE970004FF001324FF0803321
:1026C00050F8044BA4EB020525EA04051D4000D197
:1026D000F6E7A0F1040070BC10F8012B002AFBD132
:0626E000A0EB01007047B1
:1026E80071280000000000007828000000000000A9
:1026F80082280000000000007C2800000000000084
:08270800452700000000030357
:10271000782700000000000058270000000000207B
:102720004800002010010020180100205000002067
:04273000180000008D
:102734004261636B656E647320666C75736865646F
:1027440000617070000000003C0500207F00000064
:10275400BC0500207274745F6C6F675F6261636BA9
:10276400656E640000000000000000000338FDD81E
:102774007047000051090000BD0900004D09000028
:102784001B5B306D002573001B5B313B33316D00E7
:1027940025734C6F67732064726F707065642028B2
:1027A40025642925730D0A003C25733E2025733AC0
:1027B4002000202530327800202020007C00256372
:1027C400001B5B313B33306D001B5B313B33326D9F
:1027D400001B5B313B33336D001B5B313B33346D8A
:1027E400001B5B313B33356D001B5B313B33366D76
:1027F400001B5B313B33376D007761726E696E6726
:1028040000696E666F006465627567008427000066
:10281400C52700008C270000CD270000D527000025
:10282400DD270000E5270000ED270000F527000064
:10283400000000004E280000FD27000005280000CD
:102844000A280000466174616C206572726F720020
:1028540053797374656D2072657365740030313219
:102864003334353637383941424344454647504975
:102874004F5445005050490054494D45520050575B
:102884004D0050574D2064757479206368616E67FC
:1028940065640041637475616C2074656D70657264
:1028A40061747572653A2025640050574D2065782F
:1028B400616D706C6520737461727465642E0000C0
:1028C400040003060000000003000102000292FF5E
:1028D400FFFF070500001027000100001C00002076
:1028E4000500000000000000000000005465726D47
:1028F400696E616C00525454005345474745520079
:1029040043000000504F534958000000202020206D
:10291400202020202068282828282020202020204B
:1029240020202020202020202020202048101010AB
:1029340010101010101010101010101084848484C3
:102944008484848484841010101010101081818178
:1029540081818101010101010101010101010101E3
:102964000101010101010110101010101082828276
:1029740082828202020202020202020202020202B3
:1029840002020202020202101010102000070320AB
:1029940004170201085710408000000004290000B9
:1029A400082A00001C2B000053756E004D6F6E004A
:1029B4005475650057656400546875004672690073
:1029C40053617400000000004A616E0046656200B5
:1029D4004D617200417072004D6179004A756E005C
:1029E4004A756C0041756700536570004F6374004D
:1029F4004E6F76004465630000000000414D0050B6
:102A04004D000000402B00003C2B00003C2B00003C
:102A14003C2B00003C2B00003C2B00003C2B000016
:102A24003C2B00003C2B00003C2B0000FFFFFFFF71
:102A3400FFFFFFFFFFFFFFFFFFFF00007C2A0000F6
:102A4400AC290000B82A0000CC290000002A0000AC
:102A5400602A0000102B00006C2A0000256D2F2531
:102A6400642F25790000000025612025622025655A
:102A7400202554202559000053756E646179004D5A
:102A84006F6E64617900547565736461790057658C
:102A9400646E6573646179005468757273646179F6
:102AA4000046726964617900536174757264617976
:102AB400000000004A616E756172790046656272B9
:102AC40075617279004D6172636800417072696C5E
:102AD400004D6179004A756E65004A756C79004154
:102AE40075677573740053657074656D6265720003
:102AF4004F63746F626572004E6F76656D626572C6
:102B040000446563656D62657200000025483A25DE
:102B14004D3A255300000000D1240000ED240000AC
:102B2400F924000005250000212500002D250000C2
:0E2B34003925000047250000000000002E009B
:102B440000000000FF000000E8030000F4010000A2
:102B54006400000000C001400000000010274C1D6C
:102B64008813C409102700000080004000040000FE
:102B74000090D003A0290000A0290000A029000093
:082B8400A0290000A0290000B7
:040000030000037581
:00000001FF
