:1000000000000120750300005D0300005F03000095
:1000100061030000630300006503000000000000AE
:100020000000000000000000000000006703000066
:1000300069030000000000006B0300006D03000076
:10004000A16300006F0300006F0300006F03000056
:100050006F0300006F030000813300005146000071
:100060006F0300006F0300006F030000A95E000033
:10007000456800006F0300006F0300006F0300007D
:100080006F030000C95500006F0300006F030000FC
:10009000095600006F0300006F0300006F030000AB
:1000A0006F0300006F0300006F0300006F03000088
:1000B000354300006F030000000000000000000056
:1000C0006F0300004D430000654300006F03000014
:1000D0006F0300006F0300006F03000000000000CA
:1000E0000000000000000000000000000000000010
:1000F0000000000000000000000000000000000000
:1001000000000000000000000000000000000000EF
:1001100000000000000000000000000000000000DF
:1001200000000000000000000000000000000000CF
:1001300000000000000000000000000000000000BF
:1001400000000000000000000000000000000000AF
:10015000000000000000000000000000000000009F
:10016000000000000000000000000000000000008F
:10017000000000000000000000000000000000007F
:10018000000000000000000000000000000000006F
:10019000000000000000000000000000000000005F
:1001A000000000000000000000000000000000004F
:1001B000000000000000000000000000000000003F
:1001C000000000000000000000000000000000002F
:1001D000000000000000000000000000000000001F
:1001E000000000000000000000000000000000000F
:1001F00000000000000000000000000000000000FF
:10020000354936480A1A02D0072291438D463449AF
:1002100034480A1A06D00722914381F30988022242
:1002200082F3148830483149314A00F044F83148AB
:100230003149324A00F03FF831483249324A00F041
:100240003AF832483249334A00F035F832483349F7
:10025000334A00F030F833483349344A00F02BF881
:1002600033483449344A00F026F8344834490022EF
:1002700000F02CF833483449002200F027F83348C6
:100280003349091A082902DB002202604160314A21
:1002900090471F481F49884205D00268043003B4C4
:1002A000904703BCF7E700208646EC46002000217B
:1002B000294A9047FEE7884207D0521A05D00378B2
:1002C00001300B700131013AF9D17047884202D0F8
:1002D00002700130FAE770470000012000E00020C2
:1002E0000000012000000120DC8700000000002049
:1002F00080000020D0030000D0030000EE76000054
:10030000DC8700000000002000000020547700007F
:1003100054770000547700005477000054770000B1
:10032000547700005477000054770000DA8700000B
:100330005C880000800000208000002080000020F9
:10034000380B0020380B0020380B0020380B002021
:10035000382B00209D030000C56A0000FEE7FEE781
:10036000FEE7FEE7FEE7FEE7FEE7FEE7FEE7FEE765
:1003700000F002B8FFF7FCBF0F484FF007018843B9
:1003800085460E4880470E48016841F470010160BF
:10039000BFF34F8FBFF36F8FFFF732BF09480A4992
:1003A0000A4A884207D0521A05D0037801300B70F0
:1003B0000131013AF9D17047000001200D6F0000B2
:1003C00088ED00E0547700000000002000000020CD
:1003D00000B583B001900091019B1B681B680099D8
:1003E0000198984700BF03B05DF804FB00B583B0E7
:1003F0000190019B1B685B680198984700BF03B0A0
:100400005DF804FB00B583B00190019B1B689B68FD
:100410000198984700BF03B05DF804FB82B00190DB
:100420000B468DF80330019BDB689DF803201A71A1
:1004300000BF02B0704782B00190019BDB681B795E
:10044000184602B0704782B00190019BDB68012220
:100450005A7100BF02B0704782B00190019BDB6807
:100460005B79184602B0704700B585B001900091E5
:10047000154BFF229A60144B00221A60124B002287
:100480005A60114B0022C3F818240F4B0022C3F806
:1004900014240D4B002283F820240C4801F014FF93
:1004A0000390039B002B01D0039B08E0084802F057
:1004B000A1F8084A084BD31ADB0802930023184618
:1004C00005B05DF804FB00BFE801002040770000A4
:1004D0005477000030770000F0760000024A034BAA
:1004E000D31ADB081846704730770000F07600001A
:1004F00000B587B001900B468DF803309DF80330AE
:10050000002B1FD0FFF7EAFF04900023059313E0B0
:10051000059B9B000E4A13440393039B1B881A46BA
:10052000019B1B689A4204D1019B059A1A60002323
:1005300009E0059B01330593059A049B9A42E7D392
:10054000052300E00023184607B05DF804FB00BF58
:100550000000002000B585B001900B468DF80330F7
:100560009DF8032001AB11461846FFF7C1FF034673
:10057000002B07D1019BDB00054A13440393039B27
:100580001B6800E00023184605B05DF804FB00BFBF
:10059000F076000084B001900B468DF80330019B8B
:1005A000DB00174A134402939DF80330013B032BF1
:1005B0001CD801A252F823F0C9050000D1050000A3
:1005C000D9050000E305000002238DF80F3011E08B
:1005D00004238DF80F300DE0029B1B798DF80F304E
:1005E00008E0029B5B798DF80F3003E000238DF863
:1005F0000F3000BF9DF80F30184604B0704700BFA1
:10060000F076000084B00190009100238DF80F3047
:10061000019B1B7803F00403DBB2002B24D0019B69
:100620001B78C3F30103DBB2012B02D0022B0CD0E9
:1006300017E0009B1B68019A1288C2F38312D2B2A2
:1006400013449A1C009B1A600BE0009B1B68019AE4
:100650005288C2F3891292B213449A1C009B1A600A
:1006600000BF01238DF80F309DF80F30184604B0FD
:100670007047000000B58BB00023ADF826303E482F
:1006800001F043F93D4801F040F93D4B5B680493AC
:100690003B4B9B680693049A069B134002339B00D6
:1006A000374A13440433089304AB19460898FFF7FC
:1006B000A9FF0346002B09D0049A069B134002337E
:1006C0009B002F4A134404330893EDE700BF002337
:1006D000079311E0049B5A1C0492069A1340079A50
:1006E000920001A90A44264902339B000B445B682F
:1006F0001360079B01330793079B012BEAD99DF8F1
:100700000430C3F30103DBB2012B10D0022B1CD148
:10071000BDF80A30ADF82630BDF80630C3F38913B2
:100720009BB203339A08049B1344049313E0BDF86F
:100730000A30ADF82630BDF80430C3F38313DBB2C2
:100740001A46049B1344049305E00E494FF4BF700E
:1007500001F04DF800BF094801F0E3F80590059B52
:10076000002B02D0049B064A5360BDF82630184681
:100770000BB05DF804FB00BF00060020FC05002064
:10078000E80100206477000000B585B0002107482B
:1007900001F044F80390039B0293029B83F3100340
:1007A0000193019B184605B05DF804FB0406002088
:1007B00000B589B00390029101920093039B1B0C3A
:1007C0000793FFF7E1FF0690FFF788FE0246079BBD
:1007D000934204D3214940F2A31001F008F8069B8C
:1007E0001904009B5A1C0A9B1340079A0A431C4990
:1007F00002339B000B445A60009A0A9B1340023359
:100800009B00174A134404330593039B03F007032B
:10081000D9B2059A137861F3C5031370019B03F0F5
:100820000F03D9B2059A138861F389131380029BD1
:10083000C3F31501059A136861F39F231360059AAA
:100840001378012161F301031370059A13786FF394
:100850008203137000BF09B05DF804FB64770000E9
:10086000E801002000B58BB00390029113468DF88B
:100870000730039B0233089301238DF81F300020BB
:1008800000F06EFF3E4B1A68029B1A603C4B9A6860
:100890003B4B59683A4B1B68CB1A134401330993FD
:1008A00014E00121374801F000F8FFF7E3FE05905E
:1008B0000599344800F0F9FF314B9A68304B59687C
:1008C0002F4B1B68CB1A134401330993089A099BD9
:1008D0009A42E6D89DF81F30002B48D0002304939D
:1008E0009DF80730002B17D09DF81030012262F3DD
:1008F00001038DF810309DF8103043F004038DF89B
:100900001030039B03F00F03DAB2BDF8103062F32E
:100910008913ADF8103016E09DF81030022262F312
:1009200001038DF810309DF8103043F004038DF86A
:100930001030039BC3F309039AB2BDF8123062F37F
:100940008F13ADF812300E4B1A680D4B9B68134095
:1009500002339B000A4A134404330693049A069B0D
:100960001A60074B1A68089B1344054A136000205D
:1009700000F00AFF9DF81F3018460BB05DF804FB2D
:10098000E80100200406002000B58BB0059004911A
:10099000039202931F4B9B68079306AB01221946F3
:1009A0000298FFF75FFF0346002B24D0069B02331B
:1009B00009930023089311E0089B9B00039A1A44B3
:1009C000099B591C099107990B4012681149023380
:1009D0009B000B445A60089B01330893089A029BC2
:1009E0009A42E9D3069A079B00931346029A049908
:1009F0000598FFF7DDFE074B93F82034002B05D058
:100A000000BF00F065F80346002BFAD100BF0BB021
:100A10005DF804FBE801002000B583B0019000916F
:100A20000023002200990198FFF7AEFF00BF03B03A
:100A30005DF804FB00B587B0039002910192019B21
:100A4000059305AA012302990398FFF79DFF00BFB4
:100A500007B05DF804FB00B587B0039002910192E6
:100A60000093019B0493009B059304AA022302991F
:100A70000398FFF789FF00BF07B05DF804FB00B5DE
:100A80008BB00390029101920093019B0593009B10
:100A900006930C9B07930D9B08930E9B099305AA45
:100AA000052302990398FFF76FFF00BF0BB05DF8B5
:100AB00004FB0000054B5A68044B1B689A420CBFAC
:100AC00001230023DBB21846704700BFE801002075
:100AD00000B599B0FFF7EEFF0346002B01D00023CD
:100AE000B7E19B4B0022C3F81824BFF34F8F00BF20
:100AF000974B5B680493964B9B681093049A109BEA
:100B0000134002339B00924A134404331193002391
:100B100017930023169300230F9304AB19461198E3
:100B2000FFF770FD0346002B19D0894BD3F818341A
:100B3000002B14D1864B1A68049B9A4205D8844B2B
:100B40001B68834A5360002383E1049A109B13407F
:100B500002339B007E4A134404331193DDE70023E4
:100B6000159311E0049B5A1C0492109A1340159A95
:100B7000920001A90A44764902339B000B445B684A
:100B80001360159B01331593159B012BEAD99DF832
:100B9000043003F00303DBB2022B40F09C80BDF86D
:100BA0000630C3F389139BB20D93BDF80630C3F32F
:100BB00089139BB2502B28BF50239BB20C930C9BE4
:100BC000C3F309039AB2BDF8063062F38F13ADF890
:100BD00006300C9B08330B939DF80430C3F3C2031B
:100BE000DBB20F930B995B4801F079FB1790179BD1
:100BF000002B00F0D180179801F002FC01A9169B90
:100C00000822179801F0B8FC169B08331693049B32
:100C1000DA43109B134001339B000A930C9A0A9B02
:100C20009A4242D90A9B002B08D0049A109B134089
:100C300002339B00464A1344043300E0464B0893BA
:100C40000A9B002B02D00A9BDBB201E00C9BDBB2BB
:100C50008DF81F300A9B002B01D03F4B00E0002392
:100C600006930A9B002B06D00C9BDAB20A9BDBB2E0
:100C7000D31ADBB200E000238DF817309DF81F2057
:100C8000169B0899179801F077FC9DF81F30169A6B
:100C900013441693069B002B16D09DF81720169B25
:100CA0000699179801F068FC0EE0049A109B134017
:100CB00002339B00264A134404330993169B0C9A73
:100CC0000999179801F058FC0D9B03339A08049B6F
:100CD0001344049360E09DF8043003F00303DBB297
:100CE000012B59D1BDF80430C3F38313DBB2062BBB
:100CF00028BF0623DAB2BDF8043062F38913ADF8D9
:100D00000430BDF80430C3F38313DBB202330E9317
:100D10009DF80430C3F3C203DBB20F930E9B9B001C
:100D200019460C4801F0DBFA1790179B002B33D0C3
:100D3000179801F065FB01A9169B0822179801F08E
:100D40001BFC169B08331693002315931BE000BF72
:100D5000E801002040770000F4010020049B5A1CA9
:100D60000492109A134002339B003C4A1344191D0D
:100D7000169B0422179801F0FFFB169B0433169371
:100D8000159B01331593BDF80430C3F38313DBB215
:100D90001A46159B9342E1D3179B002B39D02F4B5A
:100DA000D3F8103414932D4BD3F81834002B1BD0E8
:100DB000179801F034FB46E000238DF84F3014986B
:100DC000FFF74AFB0346002B02D001238DF84F307A
:100DD0009DF84F30002B03D017991498FFF7F8FABD
:100DE000149BDB681B681493149B002BE4D11798A9
:100DF00001F015FB002000F0B3FC184BD3F81834B9
:100E0000002B02D1049B154A5360002000F0BCFC6B
:100E100019E0124BD3F81034129306E01298FFF742
:100E2000F1FA129BDB681B681293129B002BF5D121
:100E30000B4A0C4BD31ADB081B0443F002030A498C
:100E40001846FFF7E9FDFFF735FE034683F001037F
:100E5000DBB2184619B05DF804FB00BFE8010020C2
:100E600020770000F0760000B477000000B585B070
:100E70000023039323E0164BD3F81034029301238D
:100E80008DF807300FE00298FFF7D5FA03461A46AF
:100E9000039B934203D100238DF8073006E0029BA9
:100EA000DB681B680293029B002BECD19DF8073096
:100EB000002B01D0039B07E0039B01330393039BAB
:100EC000092BD8DD4FF0FF33184605B05DF804FB61
:100ED000E801002000B585B001900B468DF8033085
:100EE000FFF7C4FF0390039BB3F1FF3F01D1039BC6
:100EF00022E0039BDBB219460198FFF78FFA104BF3
:100F0000D3F81034002B08D10D4A019BC2F81034DD
:100F1000019BDB6800221A600DE0094BD3F8103406
:100F2000DA68019BDB6812681A60054BD3F810344D
:100F3000DB68019A1A60039B184605B05DF804FB54
:100F4000E801002000B583B00D4BD3F810340193B5
:100F50000B4B012283F8202409E00198FFF773FA74
:100F60000198FFF743FA019BDB681B680193019B23
:100F7000002BF2D100BF00BF03B05DF804FB00BF3F
:100F8000E801002082B00190019BDB6801225A71C8
:100F900000BF02B07047000000B583B04FF0FF33D0
:100FA000019300F044F804210848FFF793FF0190F3
:100FB000019B002B03DA0649412000F018FC03488E
:100FC000FFF7E0FF00BF03B05DF804FB30770000DF
:100FD000D877000000B585B00190019B002B0AD0A6
:100FE000074B43F001030393019B9B010293039B77
:100FF0000298984700E000BF05B05DF804FB00BF11
:101000004078000000B583B00190019B002B0AD00E
:101010004FF47A70FFF7DEFF019B013B0193019BC8
:10102000002BF5D100E000BF03B05DF804FB08B56C
:1010300005F046FF00BF08BD00B589B003900291DE
:101040000192019B002B33D00023079303230693C7
:10105000029A079B1344019A1946002005F0E0FE0E
:101060000590079A059B13440793019A059BD31A91
:101070000193059B002B13D10F4B1B7883F00103C9
:10108000DBB2002B13D10120FFF7BCFF069B013B15
:101090000693069B002B03D1074B00221A7007E032
:1010A000054B01221A70019B002BD1D100E000BF3B
:1010B00000BF09B05DF804FB0C06002000B585B048
:1010C00003900291054B00934023054A029903982F
:1010D00000F012F800BF05B05DF804FB3910000005
:1010E0001006002082B0019000BF02B0704782B0AD
:1010F000019000BF02B0704700B5A1B00590049107
:1011000003920293049801F07BF9039B1593029BD1
:1011100016930023179300238DF860300023199352
:10112000229B1A9300231F930FA91F9B0822049848
:1011300001F040FA08231F93119B1293BDF8403031
:10114000ADF84C30BDF84230ADF84E3000238DF88C
:1011500051309DF83C3003F00303DBB2012B26D164
:101160000F9BC3F395231C939DF83C30C3F3C2033C
:10117000DBB28DF85030BDF83C30C3F38313DBB2E3
:101180001B931B9B9A0009A91F9B049801F012FA5C
:101190001B9B9B001F9A13441F9312AA09A915AB0E
:1011A000009313461B9A1C9800F0C6F82FE09DF898
:1011B0003C3003F00303DBB2022B28D1BDF83E30F4
:1011C000C3F389139BB21E939DF83C30C3F3C20353
:1011D000DBB28DF850301E9B082B28BF08231D93CF
:1011E00007A91F9B1D9A049801F0E4F91F9A1D9B03
:1011F00013441F931E9A1D9BD31A1E9315AB12AA5C
:1012000007A81D9900F03AF91E9B002BE3D1049822
:1012100001F005F900BF21B05DF804FB82B0019038
:10122000009100BF02B0704710B584B003900291E6
:10123000039BDB88002B0AD0039BDB881A461F4BDD
:10124000009313461E4A1F49029800F099FC039B25
:101250001B7A052B2ED0039B5B7A002B12D0039BAD
:101260009B881A46039B1B7A19461046FFF792F992
:1012700003461A46144B53F822301A461349029873
:1012800000F07EFC039B1B6819460298FFF7C6FF1F
:10129000039B1B7A1A460E4B53F82240039B9B88F4
:1012A00000211846FFF756F90346224609490298DD
:1012B00000F066FC00BF04B010BD00BF68780000FD
:1012C00078780000B07800001C000020C87800008A
:1012D00008000020CC78000000B585B00390029192
:1012E00013468DF80730039B1B7A052B0FD0039B09
:1012F0005B7A002B06D00D4B1B681A460C490298EE
:1013000000F03EFC0B49029800F03AFC07E09DF823
:101310000730002B03D00749029800F031FC0298F7
:1013200000F00CFC00BF05B05DF804FB1C000020C1
:10133000C8780000D878000030B58BB007900691CF
:10134000059204930E9B1B7B8DF827300E9B002289
:101350001A730E990498FFF767FF059B062B7FD839
:1013600001A252F823F000BF851300008F13000084
:101370009F130000B3130000D1130000F913000005
:101380002914000007990E9800F0FAFB69E0069B0B
:101390001B681A4607990E9800F0F2FB61E0069B65
:1013A0001A68069B04331B6807990E9800F0E8FB47
:1013B00057E0069B1A68069B04331968069B08339E
:1013C0001B6800930B4607990E9800F0D9FB48E084
:1013D000069B1968069B04331868069B08331B6834
:1013E000069A0C3212680192009303460A46079946
:1013F0000E9800F0C5FB34E0069B1868069B04338A
:101400001C68069B08331B68069A0C321268069902
:101410001031096802910192009323460246079910
:101420000E9800F0ADFB1CE0069B1C68069B043385
:101430001D68069B08331B68069A0C3212680699D1
:1014400010310968069814300068039002910192E7
:1014500000932B46224607990E9800F091FB00E07E
:1014600000BF00220E990498FFF736FF0E9B9DF8EF
:1014700027201A7300BF0BB030BD00BF00B587B086
:101480000390029101920093029B082B60D8009B6D
:101490001B7B8DF81330009B00221A730099019872
:1014A000FFF7C2FE0023059314E0059A029B9A42BF
:1014B00009D2039A059B13441B781A4626490098C3
:1014C00000F05EFB03E02549009800F059FB059B06
:1014D00001330593059B072BE7D92149009800F0BC
:1014E0004FFB0023059326E0059A029B9A421BD2EC
:1014F000039A059B13441B788DF812309DF8123027
:101500007E2B0AD89DF81230184606F03DF80346A7
:10151000002B02D09DF8123000E02E231A4611490C
:10152000009800F02DFB03E00F49009800F028FB25
:10153000059B01330593059B072BD5D90122009903
:101540000198FFF7C9FE009B9DF813201A7300E075
:1015500000BF07B05DF804FBDC780000E478000011
:10156000E8780000EC780000F078000086B0039086
:101570000291019201238DF817309DF81730214A0E
:10158000039B13601F4A029B53601E4A019B93609A
:10159000039B44F20102934213D0039B44F20202E4
:1015A000934221D1019B174AD360164BDB681B88FD
:1015B0001A46144B9A61134BDB685B68114AD3617E
:1015C00012E0019B0F4A13610E4B1B699B680D4A89
:1015D00053610C4B1B691B680A4A9361094B1B69D9
:1015E0005B68084AD36100BF72B600BF00BF9DF8B8
:1015F0001730DBB2002BFAD162B600BF00BF06B0D5
:10160000704700BF5006002000B583B002900091E3
:10161000019244F2010071466A4600F003F803B0FB
:1016200000BD00BF30B58BB007900691059272B631
:1016300000BFFFF787FC00BFFFF74AFA0346002B05
:10164000FAD1079B44F20102934216D0079B44F261
:10165000020293423ED1059B09932C4A2C4BD31A8C
:10166000DB081B0443F00100099B5B681A46099BD9
:101670001B882849FFF7EFF939E0059B0893234AB7
:10168000234BD31ADB081B0443F00104089B9D681D
:10169000089B9B68184600F0CBFF03461846089B42
:1016A0005B681946089B1B68069A02920193009199
:1016B00003462A4618492046FFF7E1F9134A144B1E
:1016C000D31ADB081B0443F0010314491846FFF743
:1016D000A3F90CE00D4A0E4BD31ADB081B0443F0B0
:1016E0000103069A0E491846FFF7A4F900BF0D4BF7
:1016F0001B6803F00103002B00D000BE059A069979
:101700000798FFF733FF00BF0BB030BD2077000014
:10171000F0760000F47800001079000038790000BD
:101720004C790000F0ED00E072B600BF034B1B687F
:101730000133024A136000BF704700BF70060020EB
:10174000064B1B68013B054A1360044B1B68002BCA
:1017500001D162B600BF00BF704700BF7006002015
:1017600000B583B0019000F025F80346012B03D0AB
:101770000449432000F03BF8FFF7D6FF00BF03B059
:101780005DF804FB6479000000B583B003468DF872
:10179000073000F00FF80346012B03D00449512015
:1017A00000F025F8FFF7CCFF00BF03B05DF804FBA5
:1017B0006479000084B0EFF305830193019BC3F3C8
:1017C00008030393039B002B0DD1EFF314830093C5
:1017D000009B0293029B03F00103002B0CBF01232B
:1017E0000023DBB200E00123184604B0704700B5C7
:1017F00085B003460091ADF80630BDF80630ADF86F
:101800000830009B039302AB1A46002144F2020009
:10181000FFF708FF00BF05B05DF804FB10B487B008
:1018200001900091019B009A53E8004F104643E855
:10183000000191F0000FF7D1059404900391059BEE
:10184000184607B05DF8044B704710B487B001909C
:101850000091019B009A53E8004F44EA020043E8DC
:10186000000191F0000FF6D1059404900391049BC0
:10187000184607B05DF8044B704710B487B001906C
:101880000091019B009A53E8004F04EA020043E8EC
:10189000000191F0000FF6D1059404900391059B8F
:1018A000184607B05DF8044B704710B487B001903C
:1018B0000091019B009A53E8004F04EB020043E8BB
:1018C000000191F0000FF6D1059404900391049B60
:1018D000184607B05DF8044B704710B487B001900C
:1018E0000091019B009A53E8004FA4EB020043E8EB
:1018F000000191F0000FF6D1059404900391049B30
:10190000184607B05DF8044B704700B583B00190EE
:1019100001210198FFF799FF0346184603B05DF8CF
:1019200004FB00B583B0019000210198FFF7A5FFEB
:101930000346184603B05DF804FB000000B583B011
:1019400001900B468DF80330019B002B03D1084911
:10195000E820FFF74CFF019BDA689DF803300199FE
:10196000098A01FB03F31344184603B05DF804FB36
:10197000B079000000B583B001900091019B002B6D
:1019800003D10849F520FFF732FF009B019AD26886
:101990009B1A019A128AB3FBF2F3DBB2184603B02A
:1019A0005DF804FBB079000000B585B00190019BA3
:1019B000002B01D10E234CE0019B1B68002B03D1AF
:1019C0002649FF20FFF713FF019B5B68002B04D122
:1019D00022494FF48070FFF70AFF019B9B68002BA0
:1019E00004D11E4940F20110FFF701FF019BDB68A3
:1019F000002B04D119494FF48170FFF7F8FE019BC9
:101A00001B8A002B04D1154940F20310FFF7EFFEAB
:101A1000019B9A68019B5B68D31A8DF80F30019B7C
:101A20001B68019A52681A6007E0019B1A681368E4
:101A3000591C11609DF80F201A709DF80F305A1E26
:101A40008DF80F20002BF0D1019B1B6800221A712A
:101A50000023184605B05DF804FB00BFB079000014
:101A600000B585B00190019B002B04D11C494FF4B7
:101A70009270FFF7BCFE002303930020FFF770FE77
:101A8000019B1B681A68019B5B689A421FD9019BE6
:101A90001B681A68013A1A601B681B78194601987E
:101AA000FFF74CFF0390019B9A68019B1B681B6822
:101AB000D31A8DF80B30019B1B681B799DF80B2006
:101AC0009A4204D9019B1B689DF80B201A710020D3
:101AD000FFF75AFE039B184605B05DF804FB00BFF4
:101AE000B079000010B584B001900091019B002BEB
:101AF00004D1114940F24710FFF779FE009B002BFB
:101B000004D10D494FF4A470FFF771FE009B0393BD
:101B10000020FFF725FE019B1B681C68621C1A60F1
:101B200003990198FFF726FF034623700020FFF773
:101B30002BFE00BF04B010BDB079000000B583B02B
:101B40000190019B002B03D10C493120FFF74FFE80
:101B5000019B9B68002B0CD0019B5B69019A10696B
:101B6000019A1168019A92689847019B00229A6035
:101B700000E000BF03B05DF804FB00BFF87900008F
:101B80000EB400B584B00190019B002B03D118491D
:101B90004220FFF72CFE019B5B69002B03D1144907
:101BA0004320FFF724FE019B1B68002B03D1104943
:101BB0004420FFF71CFE019B5B68002B03D10C49FE
:101BC0004520FFF714FE059B002B0AD0002303934A
:101BD00006AB039303AB1A460599019800F0B0F9E0
:101BE00000E000BF04B05DF804EB03B0704700BF35
:101BF000F879000000B583B001900B468DF80330F2
:101C0000019B1A68019B9B68581C019988601344CA
:101C10009DF803201A70019B9A68019B5B689A42A9
:101C200002D30198FFF78AFF00BF03B05DF804FB01
:101C300000B587B0039002910192009300230593B1
:101C4000009B03F00103002B24D00BE0029B013327
:101C50000293059B013305939DF8133019460398B1
:101C6000FFF7C8FF029B1B788DF813309DF81330E7
:101C7000002BEBD106E0019B013B0193202103984F
:101C8000FFF7B8FF019A059B9A422ED9019B002BC2
:101C9000F1D12AE0029B002B0BD0029805F0F7FC53
:101CA000059006E0019B013B019320210398FFF77B
:101CB000A1FF019A059B9A420FD9019B002BF1D1FC
:101CC0000BE0029B01330293059B013305939DF8C2
:101CD000133019460398FFF78DFF029B1B788DF890
:101CE00013309DF81330002BEBD100BF07B05DF827
:101CF00004FB000000B589B00390029101920093AB
:101D0000029B07930123069307E0079A019BB2FB0E
:101D1000F3F30793069B01330693079A019B9A42BC
:101D2000F3D2009A069B9A4201D9009B06930B9B23
:101D300003F00103002B22D10A9B002B1FD00B9B29
:101D400003F00203002B06D0009B002B03D13023AD
:101D50008DF8173002E020238DF8173008E00A9B39
:101D6000013B0A939DF8173019460398FFF742FF8D
:101D70000A9B002B03D0069A0A9B9A42EFD30123B9
:101D80000793009B012B03D9009B013B009309E0C3
:101D9000029A079BB2FBF3F30493049A019B9A42C5
:101DA00000D205E0079B019A02FB03F30793E8E7E3
:101DB000029A079BB2FBF3F30493049B079A02FB7E
:101DC00003F3029AD31A0293154A049B13441B7817
:101DD00019460398FFF70EFF079A019BB2FBF3F336
:101DE0000793079B002BE3D10B9B03F00103002B10
:101DF00011D00A9B002B0ED006E00A9B013B0A93F0
:101E000020210398FFF7F6FE0A9B002B03D0069AC9
:101E10000A9B9A42F1D300BF09B05DF804FB00BFF2
:101E20007C7A000000B589B005900491039202937A
:101E3000049B002BB8BF5B4206930123079307E086
:101E4000039B069A92FBF3F30693079B01330793D8
:101E5000039B069A9A42F3DA029A079B9A4201D9A7
:101E6000029B07930A9B002B0AD0049B002B04DBE8
:101E70000B9B03F00403002B02D00A9B013B0A9347
:101E80000B9B03F00203002B02D0029B002B16D009
:101E90000B9B03F00103002B11D10A9B002B0ED0EA
:101EA00006E00A9B013B0A9320210598FFF7A2FE5A
:101EB0000A9B002B03D0079A0A9B9A42F1D3049BFA
:101EC000002B07DA049B5B4204932D210598FFF752
:101ED00091FE08E00B9B03F00403002B03D02B21A1
:101EE0000598FFF787FE0B9B03F00203002B19D028
:101EF0000B9B03F00103002B14D1029B002B11D18B
:101F00000A9B002B0ED006E00A9B013B0A9330216E
:101F10000598FFF76FFE0A9B002B03D0079A0A9BD8
:101F20009A42F1D304990B9B01930A9B0093029B65
:101F3000039A0598FFF7DEFE00BF09B05DF804FBC9
:101F400000B58FB0059004910392059B002B04D13E
:101F5000B64940F25220FFF74AFC059B5B69002B13
:101F600004D1B2494FF41570FFF741FC059B1B6883
:101F7000002B04D1AD4940F25520FFF738FC059BFA
:101F80005B68002B04D1A94940F25620FFF72FFCD3
:101F9000049B002B00F09381049B1B788DF8373055
:101FA000049B013304939DF83730002B00F07E81B1
:101FB0009DF83730252B40F06D8100230A930123D3
:101FC0000C93049B1B788DF837309DF83730302BFD
:101FD0000DD0302B1BDC2B2B11D02D2B17D10A9BB6
:101FE00043F001030A93049B0133049312E00A9B1C
:101FF00043F002030A93049B013304930AE00A9B13
:1020000043F004030A93049B0133049302E000238A
:102010000C9300BF0C9B002BD3D1002309939DF898
:1020200037302A2B0CD1039B1B68191D039A1160B2
:102030001B68099A13440993049B013304931AE023
:10204000049B1B788DF837309DF837302F2B12D931
:102050009DF83730392B0ED8049B01330493099A2D
:1020600013469B0013445B001A469DF83730134417
:10207000303B0993D3E700230B93049B1B788DF827
:1020800037309DF837302E2B1DD1049B013304933C
:10209000049B1B788DF837309DF837302F2B12D9E1
:1020A0009DF83730392B0ED8049B013304930B9ADB
:1020B00013469B0013445B001A469DF837301344C7
:1020C000303B0B93E4E7049B1B788DF837309DF889
:1020D00037306C2B03D09DF83730682B07D1049B29
:1020E00001330493049B1B788DF83730EFE79DF89C
:1020F0003730252B00F0C480252BC0F2C680782B0A
:1021000000F3C380582BC0F2C080583B202B00F254
:10211000BC8001A252F823F0072200008B220000AD
:102120008B2200008B2200008B2200008B220000FB
:102130008B2200008B2200008B2200008B220000EB
:102140008B2200009D210000BF2100008B22000097
:102150008B2200008B2200008B220000BF21000098
:102160008B2200008B2200008B2200008B220000BB
:102170008B2200008B2200004D2200008B220000E9
:102180008B220000312200008B220000E32100009E
:102190008B2200008B22000007220000039B1B689B
:1021A000191D039A11601B680C930C9B8DF81F304E
:1021B0009DF81F3019460598FFF71CFD66E0039B4C
:1021C0001B68191D039A11601B680C930A9B0193ED
:1021D000099B00930B9B0A220C990598FFF722FE9E
:1021E00054E0039B1B68191D039A11601B680C9334
:1021F0000C990A9B0193099B00930B9B0A2205985B
:10220000FFF778FD42E0039B1B68191D039A1160DC
:102210001B680C930C990A9B0193099B00930B9BE1
:1022200010220598FFF766FD30E000BF387A000005
:10223000039B1B68191D039A11601B6808930A9B76
:10224000099A08990598FFF7F3FC1FE0039B1B68A8
:10225000191D039A11601B680C9330210598FFF734
:10226000C9FC78210598FFF7C5FC0C990023019360
:1022700008230093082310220598FFF73BFD05E093
:1022800025210598FFF7B6FC00E000BF049B013351
:10229000049305E09DF8373019460598FFF7AAFC2E
:1022A000049B1B78002B7FF477AE00E000BF059BFA
:1022B0001B7B002B04D00598FFF740FC00E000BF1B
:1022C0000FB05DF804FB00BF00B583B0019001982A
:1022D000FFF76AFB0346184603B05DF804FB00B540
:1022E0008BB001900091019B1B8A043B0793009ADD
:1022F000079B1344DA1C079BB2FBF3F38DF81B30EA
:102300000198FFF7ADFB0590059B002B01D1002341
:1023100038E0059B00221A71059B01225A71079B28
:102320009AB2059BDA80059B09939DF81B30013B0F
:102330000493099B019A1A60002308931DE00198F9
:10234000FFF78EFB0390039B002B0ED0059B5B7960
:102350000133DAB2059B5A71099B039A1A60039BF9
:10236000019A1A60039B099304E0059800F00EF8A7
:10237000002307E0089B01330893089A049B9A42C4
:10238000DDD3059B18460BB05DF804FB00B58BB0A0
:102390000190019B0793079B5B798DF81B30019B94
:1023A00008939DF81B30013B05930023099305E03A
:1023B000089B1B680893099B01330993099A059BA5
:1023C0009A42F5D3089B1B680493019B0893002352
:1023D00009930BE0089B1B68039308990498FFF787
:1023E00081FB039B0893099B013309939DF81B30E4
:1023F000099A9A42EED300BF00BF0BB05DF804FB10
:1024000000B585B00190019B0393039B0433012128
:102410001846FFF74AFA00BF05B05DF804FB00B5A7
:1024200087B00190019B0593059B04330121184659
:10243000FFF753FA0346039303AB0493049B1B7803
:10244000002B02D10198FFF7A1FF00BF07B05DF894
:1024500004FB000000B591B003900291019200933B
:10246000039B002B03D14349B620FFF7C0F9039B20
:102470000993039B0F93099BDB881A46099B5B79A1
:1024800003FB02F3043B0893009A089B9A4203D390
:102490003849C420FFF7ABF9099BDB880793009B01
:1024A0001A1D079BB2FBF3F30E93009B0433079AAC
:1024B000B3FBF2F2079901FB02F29B1A0D93019B09
:1024C0001A68009B1344089A9A4203D2089A009B08
:1024D000D31A01E0019B1B680C93019B0C9A1A60B4
:1024E00005E00F9B1B680F930E9B013B0E930E9B09
:1024F000002BF6D100230B93079A0D9BD31A0A9356
:102500000A9A0C9B934228BF13460A932AE0029A28
:102510000B9B134406930F9A0D9B134404330593AE
:102520009DF84830002B05D00A9A0599069805F0C9
:1025300030F804E00A9A0699059805F02AF8002375
:102540000D930F9B1B680F930C9A0A9BD31A0C9345
:102550000B9A0A9B13440B93079A0C9B934228BF38
:1025600013460A930C9B002BD1D100BF00BF11B0C2
:102570005DF804FB8C7A000000B589B005900491E9
:1025800003920293039B079307AA00230093029BE5
:1025900004990598FFF75EFF079B039A9A4203D0C0
:1025A0000349F620FFF723F900BF09B05DF804FBEB
:1025B0008C7A000000B589B00590049103920293D3
:1025C000039B079307AA01230093029B0499059894
:1025D000FFF740FF079B039A9A4204D004494FF447
:1025E0008070FFF704F900BF09B05DF804FB00BF7D
:1025F0008C7A000082B00190019B9B6800229A6057
:10260000019B9B6800221A61019B9B6800225A6112
:10261000019B9B680022DA60019B9B6800225A6044
:10262000019B9B6800221A6000BF02B07047000047
:1026300000B585B00190019800F00EF80390039B5F
:10264000002B01D0039B00E0024B184605B05DF85B
:1026500004FB00BFD47A000086B00190164B0593AE
:10266000164B04931FE0049A059BD31ADB10DA0F74
:1026700013445B10DB00059A13440393039B1B6810
:102680000293029A019B9A4202D9039B04930AE0A7
:10269000029A019B9A4203D2039B0833059302E0FE
:1026A000039B5B6804E0059A049B9A42DBD30023FA
:1026B000184606B0704700BFA87E0000C07F00002B
:1026C000054B1B78002B04D1034B01221A70002309
:1026D00000E08523184670477406002082B0034648
:1026E0008DF807309DF8073003F01F0205499DF96A
:1026F00007305B09012000FA02F241F8232000BFF5
:1027000002B0704700E100E082B0034600918DF80E
:1027100007309DF90730002B0CDA009BDAB20C4928
:102720009DF8073003F00F03043B5201D2B20B4473
:102730001A7609E0009BDAB206499DF9073052018A
:10274000D2B20B4483F8002300BF02B0704700BF31
:1027500000ED00E000E100E000B583B003460A466A
:102760008DF8073013468DF806309DF80630072B9C
:1027700003D908496B20FFF73AF89DF806209DF928
:10278000073011461846FFF7BFFF00BF03B05DF8E2
:1027900004FB00BFC07F000000B583B003468DF886
:1027A00007309DF907301846FFF798FF00BF03B0C8
:1027B0005DF804FB82B003468DF807309DF80730C2
:1027C00003F1804303F5C043184602B0704700B5DB
:1027D00083B00346ADF80630BDF80630184600F069
:1027E00026F803461B68012B0CBF01230023DBB234
:1027F000184603B05DF804FB00B585B00346ADF89C
:102800000630BDF80630184600F011F803461A46A7
:1028100000231360BDF80630184600F008F80346A0
:102820001B680393039B00BF05B05DF804FB82B0F7
:102830000346ADF80630BDF8063003F1804303F5DA
:10284000C043184602B0704782B00190034A019B12
:10285000C2F8043300BF02B0704700BF0060004000
:1028600082B00190034BD3F80423019B1340184618
:1028700002B070470060004082B00190084A019B9E
:1028800003F5A27352F82330054943F00102019B7E
:1028900003F5A27341F8232000BF02B0704700BFC8
:1028A0000060004084B00390029113468DF8073019
:1028B000144A039B03F5A27352F82330114923F401
:1028C000473323F44073039A02F5A27241F8223091
:1028D0000C4A039B03F5A27352F82320029B1B02B0
:1028E00003F4F8519DF807301B0403F440330B4305
:1028F00004491A43039B03F5A27341F8232000BF48
:1029000004B070470060004082B00190054A019B0E
:1029100003F5A27352F823301B0A03F01F03184675
:1029200002B070470060004082B00190064A019BEF
:1029300003F5A27352F823301B0C03F00303DBB240
:10294000184602B0704700BF0060004084B001909C
:10295000094A019B03F5A27352F8233043F00303A5
:1029600003930549019B03F5A273039A41F82320C1
:1029700000BF04B0704700BF0060004084B0039007
:10298000029111461A460B468DF8073013468DF812
:102990000630184A039B03F5A27352F823301549F9
:1029A00023F4981323F4F853039A02F5A27241F822
:1029B0002230104A039B03F5A27352F82320029B96
:1029C0001B0203F4F8519DF807301B0403F4403355
:1029D00019439DF806301B0503F480130B4305498A
:1029E0001A43039B03F5A27341F8232000BF04B0F0
:1029F000704700BF0060004000B583B00190019BAC
:102A00001B681F2B04D9054940F2CD10FEF7EFFEDD
:102A10004FF0A043184603B05DF804FBF07F0000C0
:102A200000B585B00190084611461A4603468DF858
:102A300003300B468DF8023013468DF8013001ABA0
:102A40001846FFF7D9FF03909DF803209DF8023048
:102A50005B001A439DF801309B001A439DF8183023
:102A60001B0242EA03019DF81C301B04019A194322
:102A7000039B02F5E07243F8221000BF05B05DF839
:102A800004FB00B585B0039000230193002300935D
:102A90000023012201210398FFF7C2FF00BF05B008
:102AA0005DF804FB00B585B003900B468DF80B3044
:102AB0009DF80B300022019200220092002200219A
:102AC0000398FFF7ADFF00BF05B05DF804FB00B54C
:102AD00085B0019001AB1846FFF78EFF0390019A75
:102AE000039B02F5E07253F8223023F002030293B5
:102AF000019A039B02F5E072029943F8221000BF8D
:102B000005B05DF804FB00B585B001900B468DF86B
:102B1000033001AB1846FFF76FFF0390019A039B48
:102B200002F5E07253F82230019A23F44031039BFE
:102B300002F5E07243F82210019A039B02F5E0725D
:102B400053F822309DF8032012041146019A1943CC
:102B5000039B02F5E07243F8221000BF05B05DF858
:102B600004FB00B585B0019001AB1846FFF744FFA8
:102B70000390019B012202FA03F31946039800F027
:102B80004BF800BF05B05DF804FB00B585B00190BF
:102B900001AB1846FFF730FF0390019B012202FAB8
:102BA00003F31946039800F041F800BF05B05DF843
:102BB00004FB00B585B0019001AB1846FFF71CFF80
:102BC0000390039800F020F80246019B22FA03F3D9
:102BD00003F00103184605B05DF804FB00B585B0AD
:102BE000019001AB1846FFF707FF0390019A039B82
:102BF00002F5E07253F822301B0C03F00303DBB242
:102C0000184605B05DF804FB82B00190019BD3F833
:102C10001035184602B0704782B001900091019BB8
:102C2000009AC3F8082500BF02B0704782B0019037
:102C30000091019B009AC3F80C2500BF02B07047B9
:102C400000B587B00390029101924FF0A043049326
:102C5000039A029B1344012B04D9124940F2FD2030
:102C6000FEF7C5FD039B059311E0059B9B0006AA9B
:102C7000134453F8083C1846FFF7C6FF0246019B71
:102C80001A60019B04330193059B01330593039A5A
:102C9000029B1344059A9A42E7D300BF00BF07B0D6
:102CA0005DF804FBF07F000084B001900091009B70
:102CB0000393019BDB080293019B03F0070301933D
:102CC0000122019B02FA03F30399029A0A44127843
:102CD0001340184604B0704784B001900091009BE7
:102CE0000393019BDB080293019B03F0070301930D
:102CF000039A029B13441B785AB20121019B01FAEB
:102D000003F35BB2134359B2039A029B1344CAB252
:102D10001A7000BF04B0704782B00190074A019B4F
:102D20001344243393F90030B3F1FF3F14BF012360
:102D30000023DBB2184602B0704700BF78060020BF
:102D400082B001900C4A019B1344243393F9003064
:102D5000002B09DB084A019B1344243393F900300C
:102D6000072B01DC012300E0002303F00103DBB2A9
:102D7000184602B0704700BF7806002082B001906C
:102D8000064A019B1344243393F90030072BCCBF30
:102D900001230023DBB2184602B0704778060020FA
:102DA00082B00190064A019B1344243393F900300A
:102DB000DB43DBB2DB09DBB2184602B0704700BF71
:102DC0007806002084B00390029101928DF80330C0
:102DD000029B59B20E4A039B134424330A461A70CD
:102DE0000B49029B019A41F823209DF8033083F0A0
:102DF0000103DBB2002B08D0029B083B039A51B2BF
:102E0000034A13440A4683F8442000BF04B07047C5
:102E10007806002082B00190044A019B13442433B9
:102E2000FE221A7000BF02B0704700BF7806002073
:102E300082B00190044A019B13442433FF221A708C
:102E400000BF02B0704700BF7806002000B583B015
:102E5000019004490198FFF73FFF00BF03B05DF800
:102E600004FB00BFBD06002082B00190044A019B14
:102E70001344243393F90030184602B0704700BF62
:102E80007806002082B00190034A019B52F823305B
:102E9000184602B0704700BF7806002000B589B020
:102EA0000390029113468DF80730FF238DF81F30F1
:102EB0009DF80730002B01D0002300E00823059384
:102EC0009DF80730002B01D0082300E0092304936C
:102ED000059B069314E00F4A069B52F82330B3F18A
:102EE000FF3F0AD19DF80730029A06990398FFF731
:102EF00069FF069B8DF81F3006E0069B01330693A1
:102F0000069A049B9A42E6D39DF91F30184609B0F1
:102F10005DF804FB7806002082B003468DF8073088
:102F20009DF80730094A4FF0FF3142F823109DF811
:102F30000730072B07D99DF80730083B034A134495
:102F4000FF2283F8442000BF02B0704778060020BB
:102F500000B583B0254B93F84930002B03D00823EC
:102F60000193019B3EE000238DF8033009E09DF8BA
:102F700003301846FFF75CFF9DF8033001338DF8EE
:102F800003309DF803301F2BF1D900238DF8033057
:102F900009E09DF803301846FFF7BEFF9DF80330A7
:102FA00001338DF803309DF80330082BF1D904224A
:102FB00000210F4804F016FB06210620FFF7CCFB8A
:102FC0000620FFF7E9FB4FF4BE70FFF715FC4FF04A
:102FD0000040FFF739FC054B012283F8492000230C
:102FE0000193019B184603B05DF804FB78060020AE
:102FF000BD06002000B585B001900091019B1F2BFC
:1030000004D92E494FF49870FEF7F1FB2C4B93F83E
:103010004930012B04D0294940F23110FEF7E7FB7B
:10302000009B002B04D125494FF49970FEF7DFFB7C
:10303000002303930198FFF76FFE0346002B02D095
:103040000823039334E0009B9B78002B19D00122C6
:1030500000210198FFF722FF03468DF80B309DF900
:103060000B30B3F1FF3F09D09DF90B00009B1A789C
:10307000009B5B780199FFF781FC05E00423039333
:1030800002E00198FFF7C6FE039B002B10D1009BC6
:103090005B78012B03D10198FFF763FD02E00198F3
:1030A000FFF773FD0198FFF7ECFC0198FFF7CEFEE8
:1030B000039B184605B05DF804FB00BF28800000A4
:1030C0007806002000B583B00190019B1F2B04D926
:1030D00013494FF4CD70FEF78AFB0198FFF71CFEF1
:1030E0000346002B04D10E4940F29B10FEF77FFBF4
:1030F0000198FFF725FE0346002B04D108494FF441
:10310000CE70FEF774FB074A019B1344243393F9F6
:1031100000301846FFF71AFC00BF03B05DF804FB4F
:10312000288000007806002000B585B00190019B42
:103130001F2B04D910494FF4D770FEF758FB0198A4
:10314000FFF7FEFD0346002B04D10B4940F2AF1000
:10315000FEF74DFB0198FFF787FE0346DBB29B00AD
:103160008DF80F309DF80F301846FFF723FB03460C
:10317000184605B05DF804FB2880000000B587B054
:10318000039002910192039B1F2B04D9364940F210
:103190000720FEF72CFB002305930398FFF700FEA2
:1031A0000346002B02D00823059357E0029B9B782F
:1031B000C3F34003DBB21A4601990398FFF76EFE92
:1031C00003468DF813309DF91330B3F1FF3F43D020
:1031D000029B9B78C3F38003DBB283F00103DBB275
:1031E000002B13D0029B9B7803F00103DBB2002B72
:1031F00003D00398FFF76BFC05E0029B5B78194650
:103200000398FFF74FFC0398FFF720FE029B9B7883
:1032100003F00203DBB2002B08D09DF91300029BE0
:103220001B781A460399FFF73DFB17E09DF9133011
:10323000083B0E4A134493F94410029B1B789B01F0
:103240005AB29DF91330083B0A4351B2074A13445E
:103250000A4683F8442001E004230593059B1846A1
:1032600007B05DF804FB00BF28800000780600204E
:1032700000B589B001900B468DF80330019B1F2BE0
:1032800004D93D4940F23720FEF7B1FA0198FFF723
:1032900087FD0346002B04D137494FF40E70FEF72B
:1032A000A6FA0198FFF76AFD0346002B2FD001987C
:1032B000FFF7DAFD0346083B304A134493F94430E4
:1032C0008DF80F309DF80F309B098DF80E309DF86A
:1032D0000E30032B0BD10198FFF76BFC0346002B3C
:1032E00001D0032300E002238DF81F3008E09DF891
:1032F0000E30012B01D1022300E003238DF81F3093
:103300009DF81F3019460198FFF7FDFB30E001984A
:10331000FFF716FD0346002B2AD00198FFF7A4FD06
:1033200003460693069B9BB240339BB29B00ADF8CD
:103330001630069B1846FFF79FFABDF81630184660
:10334000FFF75AFA9DF80330002B11D00198FFF7D0
:103350008BFD03461846FFF795FD0490049B002B58
:1033600006D00122069B02FA03F31846FFF76CFA17
:1033700000BF09B05DF804FB28800000780600203B
:1033800000B595B000231093002303934FF480738E
:10339000ADF83A300123129300230F9321E0BDF8DA
:1033A0003A301846FFF713FA0346002B0ED0129856
:1033B000FFF756FA0346002B08D0BDF83A301846FE
:1033C000FFF71AFA109A129B13431093129B5B009B
:1033D0001293BDF83A300433ADF83A300F9B013305
:1033E0000F930F9B072BDAD94FF4BE70FFF7EFF95D
:1033F0000346002B0DD04FF4BE70FFF7FDF9109B74
:1034000043F00043109303AB1A4601210020FFF75D
:1034100017FC109BDBB2002B29D001231293002351
:103420000F9321E0129A109B1340002B16D00F9897
:10343000FFF76AFA0D900F98FFF776FA03468DF8BA
:1034400033300F98FFF71EFD0B900B9B002B05D020
:103450009DF833200B9B11460D989847129B5B00FB
:1034600012930F9B01330F930F9B072BDAD9109BFD
:10347000002B80F2EE8000238DF84F300023029362
:10348000002311930AE0119B9B0014AA13444FF0F0
:10349000FF3243F84C2C119B01331193119B002BED
:1034A000F1D000238DF84F3000230F9378E06B4A62
:1034B0000F9B1344443393F900308DF82B309DF863
:1034C0002B3023F0C0030993644A0F9B1344443309
:1034D00093F90030B3F1FF3F5FD001AB1946099873
:1034E000FFF7E2FB0346002B57D09DF82B309B09DA
:1034F0008DF823300998FFF7B7FC03461846FFF70D
:10350000C1FC0790079B002B03D19DF82330032BB0
:1035100043D19DF82330032B04D102AB19460998FF
:10352000FFF7DAFB0998FFF759FB03468DF81B30CC
:1035300003AB19460998FFF7B7FB0590059B002BD5
:1035400003D09DF81B30022B06D0059B002B24D105
:103550009DF81B30032B20D19DF82330032B13D172
:103560009DF81B30022B01D1032300E002238DF8CC
:1035700013309DF8133019460998FFF7C4FA9DF8E7
:103580004F3001338DF84F30079B002B05D09DF84D
:103590002320079B1146099898470F9B01330F93EF
:1035A0000F9B002B83D09DF84F30002B4CD0012374
:1035B0008DF84E306B461A4601210020FFF740FB84
:1035C0000023119314E0119B9B0014AA134453F899
:1035D000502C119B9B0014A90B4453F8443C9A4275
:1035E00003D000238DF84E3005E0119B0133119379
:1035F000119B002BE7D09DF84E30002B03D0002309
:103600008DF84F3020E0002311931AE0119B9B00AE
:1036100014AA134453F8502C119B9B0014A90B447B
:1036200043F8442C119B9B0014AA134453F8482CD4
:10363000119B9B0014A90B4443F84C2C119B0133A4
:103640001193119B002BE1D09DF84F30002B7FF49C
:1036500028AF00BF15B05DF804FB00BF780600205E
:1036600082B003468DF807309DF80730044A0121E7
:1036700001FA03F3C2F8043500BF02B0704700BF7F
:1036800000F0014084B00346029101928DF80F30A2
:1036900008499DF80F30A233029A41F83320054AB9
:1036A0009DF80F30A233DB001344019A5A6000BF2B
:1036B00004B0704700F0014082B003468DF8073037
:1036C0009DF80730012202FA03F3184602B0704752
:1036D00000B583B003468DF807309DF807301846D3
:1036E000FFF7EAFF0346C3F31303002B14BF0123C4
:1036F0000023DBB2184603B05DF804FB82B00190F2
:103700000123184602B0704700B583B003468DF818
:1037100007309DF807301846FFF7CEFF03461846DE
:10372000FFF7ECFF0346184603B05DF804FB00000A
:1037300000B583B003468DF807309DF80730184672
:10374000FFF7BAFF0246064B1B681340002B14BF5D
:1037500001230023DBB2184603B05DF804FB00BF71
:10376000C406002000B583B003468DF807309DF8ED
:1037700007301846FFF7A0FF0246044B1B681343AF
:10378000024A136000BF03B05DF804FBC4060020CA
:1037900000B587B001900023049300230593042310
:1037A0000493244B059300238DF80F3037E000205D
:1037B000FDF7D6FF9DF80F301846FFF77DFF024654
:1037C000059B1340002B15D09DF80F301846FFF7CE
:1037D000AFFF034683F00103DBB2002B0AD09DF854
:1037E0000F301846FFF7BEFF019B9DF80F201A709F
:1037F000002304930020FDF7C7FF049B002B12D089
:103800009DF80F301846FFF757FF0346DB43059A34
:10381000134005939DF80F3001338DF80F30059B51
:10382000002BC4D100E000BF049B184607B05DF830
:1038300004FB00BFFFFF0F0000B587B003460291F5
:1038400001928DF80F30029B002B02D0019B002BC0
:1038500001D10E2325E0002305939DF80F30184673
:10386000FFF736FF034683F00103DBB2002B02D0E3
:103870000723059314E09DF80F301846FFF758FF13
:10388000034683F00103DBB2002B02D0082305932B
:1038900006E09DF80F30019A02991846FFF7F2FEF4
:1038A000059B184607B05DF804FB00B585B00346DC
:1038B0008DF80730002303939DF807301846FFF773
:1038C00023FF034683F00103DBB2002B02D0072362
:1038D00003931AE09DF807301846FFF7F9FE0346F8
:1038E000002B0DD09DF807301846FFF721FF034647
:1038F00083F00103DBB2002B02D00823039304E022
:103900009DF807301846FFF7ABFE039B184605B03D
:103910005DF804FB82B003468DF807309DF8073050
:1039200003F01F0205499DF907305B09012000FAE9
:1039300002F241F8232000BF02B0704700E100E02E
:1039400082B0034600918DF807309DF90730002BB7
:103950000CDA009BDAB20C499DF8073003F00F0334
:10396000043B5201D2B20B441A7609E0009BDAB252
:1039700006499DF907305201D2B20B4483F8002367
:1039800000BF02B0704700BF00ED00E000E100E0C2
:1039900082B00190019B03F06043B3F1005F0CBF64
:1039A00001230023DBB2184602B0704782B00190B9
:1039B000019B1B0B5BB2184602B0704700B583B089
:1039C00003460A468DF8073013468DF806309DF8F9
:1039D0000630072B03D908496B20FDF708FF9DF837
:1039E00006209DF9073011461846FFF7A9FF00BFD2
:1039F00003B05DF804FB00BF7480000000B583B025
:103A000003468DF807309DF907301846FFF782FF0F
:103A100000BF03B05DF804FB82B001900B468DF847
:103A200003309DF80330019A134401221A6000BF4D
:103A300002B0704782B001900B468DF803309DF8BC
:103A40000320019B1344184602B0704784B00190D4
:103A50000B46ADF80230BDF80230019A1344002243
:103A60001A60BDF80230019A13441B680393039B4C
:103A700000BF04B0704782B001900B46ADF8023031
:103A8000BDF80230019A13441B68002B14BF0123B8
:103A90000023DBB2184602B0704782B0019000915B
:103AA000019B009AC3F8002200BF02B0704782B0A9
:103AB00001900091019B009AC3F8002300BF02B05F
:103AC000704782B00190019B0122C3F8002500BF1E
:103AD00002B0704784B00190009100238DF80F3040
:103AE00011E09DF80F309B00009A13449DF80F20C1
:103AF0001968019B02F5AC7243F822109DF80F3053
:103B000001338DF80F309DF80F30032BE9D900BF3A
:103B100000BF04B07047000000B583B001900846B4
:103B200011461A4603468DF803300B468DF80230D5
:103B30001346ADF80030BDF90030002B04DA0C4913
:103B40004FF42870FDF753FE9DF80320019BC3F846
:103B50000C259DF80220019BC3F80425BDF8002028
:103B6000019BC3F8082500BF03B05DF804FB00BF4C
:103B7000A480000000B585B003900B4601928DF83B
:103B80000B30019B002B04D1144940F2AB20FDF710
:103B90002EFE019B1A689DF80B301946039800F021
:103BA0001FF8019B9A889DF80B301946039800F086
:103BB0003DF8019B9A689DF80B301946039800F078
:103BC00069F8019BDA689DF80B301946039800F0FC
:103BD00089F800BF05B05DF804FB00BFA4800000B9
:103BE00000B585B003900B4601928DF80B309DF81F
:103BF0000B30012B04D90C4940F2B720FDF7F7FD3B
:103C0000019B002B04D108494FF42E70FDF7EFFD06
:103C10009DF80B30019A039929335B010B441A601C
:103C200000BF05B05DF804FBA480000000B583B0C0
:103C300001900B468DF803301346ADF800309DF827
:103C40000330012B04D912494FF43070FDF7CFFD3A
:103C5000BDF80030002B04D10D4940F2C120FDF722
:103C6000C6FDBDF90030002B04DA094940F2C2203C
:103C7000FDF7BDFD9DF80330BDF800200199293303
:103C80005B010B4404331A6000BF03B05DF804FB12
:103C9000A480000000B585B003900B4601928DF81A
:103CA0000B309DF80B30012B04D90D4940F2CA208E
:103CB000FDF79DFD019BB3F1807F04D3084940F2DD
:103CC000CB20FDF794FD9DF80B30039A5B01134464
:103CD00003F5A563019A1A6000BF05B05DF804FB07
:103CE000A480000000B585B003900B4601928DF8CA
:103CF0000B309DF80B30012B04D90D4940F2D32035
:103D0000FDF775FD019BB3F1807F04D308494FF4A3
:103D10003570FDF76CFD9DF80B30039A5B01134481
:103D200003F22C53019A1A6000BF05B05DF804FB42
:103D3000A480000082B001900B468DF8033013463A
:103D40008DF802309DF803209DF802301B021A43C3
:103D5000019BC3F8102500BF02B0704782B00190EC
:103D60000B46ADF80230BDF80220019BC3F81425C4
:103D700000BF02B07047000000B583B00190019B06
:103D80001B681F2B04D9054940F2CD10FDF72FFD0C
:103D90004FF0A043184603B05DF804FBD480000048
:103DA00000B585B00190084611461A4603468DF8C5
:103DB00003300B468DF8023013468DF8013001AB0D
:103DC0001846FFF7D9FF03909DF803209DF80230B5
:103DD0005B001A439DF801309B001A439DF8183090
:103DE0001B0242EA03019DF81C301B04019A19438F
:103DF000039B02F5E07243F8221000BF05B05DF8A6
:103E000004FB00B585B003900023019300230093C9
:103E10000023012201210398FFF7C2FF00BF05B074
:103E20005DF804FB00B585B0019001AB1846FFF7C3
:103E3000A3FF0390019B012202FA03F319460398A2
:103E400000F018F800BF05B05DF804FB00B585B0C0
:103E5000019001AB1846FFF78FFF0390019B0122F1
:103E600002FA03F31946039800F00EF800BF05B0FC
:103E70005DF804FB82B001900091019B009AC3F8A9
:103E8000082500BF02B0704782B001900091019BED
:103E9000009AC3F80C2500BF02B0704700B589B086
:103EA0000190009100238DF81F3050E09DF81F30E5
:103EB000009AD35C8DF81E309DF81E30FF2B38D051
:103EC0009DF81E3003F08003002B14BF0123002354
:103ED0008DF81D309DF81E209DF81F3022F08002C5
:103EE0009B0008A90B4443F8142C9DF81D30002BAF
:103EF0000AD09DF81F309B0008AA134453F8143CC5
:103F00001846FFF78FFF09E09DF81F309B0008AAB5
:103F1000134453F8143C1846FFF798FF9DF81F30E0
:103F20009B0008AA134453F8143C1846FFF769FF96
:103F300008E09DF81F309B0008AA13444FF0FF32A1
:103F400043F8142C9DF81F3001338DF81F309DF875
:103F50001F30032BAAD9019B1B6803AA11461846E0
:103F6000FFF7B8FD00BF09B05DF804FB00B587B0EE
:103F7000039002910192029B002B03D13E498020C5
:103F8000FDF735FC039B1B79DB003C4A134405938A
:103F9000059B1B79DBB2002B03D008230493049B01
:103FA00066E0059B019A1A6002990398FFF776FF75
:103FB000039B1B681846FFF784FD039B1868029B50
:103FC0005979029B9A79029B1B89FFF7A5FD039BF8
:103FD0001868029B997A029BDB7A1A46FFF7AAFEC1
:103FE000039B1B6800211846FFF757FD039B1B68C6
:103FF00000211846FFF75BFD039B1B684FF48E7191
:104000001846FFF723FD039B1B684FF48871184681
:10401000FFF71CFD039B1B684FF48A711846FFF7DE
:1040200015FD039B1B684FF482711846FFF70EFDC8
:10403000059B1B68002B15D0039B1B681846FFF7D8
:10404000B5FC03461A46029B1B7919461046FFF73A
:10405000B5FC039B1B681846FFF7A8FC03461846EF
:10406000FFF7CCFC059B01221A7100230493049BEB
:10407000184607B05DF804FB08810000C806002060
:1040800000B587B00390029111461A460B468DF891
:10409000073013468DF80630029B02221A71029BEC
:1040A0009DF807205A71029B1B68002B25D08223A4
:1040B00005939DF8073003F00403002B03D0059B04
:1040C00043F0100305939DF8073003F00803002B1D
:1040D00003D0059B43F0200305939DF8073003F0C0
:1040E0001003002B03D0059B23F080030593039B53
:1040F0001B6805991846FFF7DAFC039B1B684FF411
:1041000082711846FFF7A2FC9DF90730002B0ADAEE
:10411000039B1B689DF8062011461846FFF78AFC92
:104120000490049B08E0039B1B689DF80620114641
:104130001846FFF771FC0023184607B05DF804FB32
:1041400000B589B00390029100931346ADF8063094
:10415000039B1B79DB003C4A13440593059B1B79A9
:10416000DBB2002B04D139494FF48D70FDF73FFBD2
:10417000BDF80630002B04D1344940F21B10FDF786
:1041800036FB029B1B681846FFF702FC0346002B18
:1041900004D12E494FF48E70FDF729FB039B1B6859
:1041A000029A00211846FFF7E5FC039B1B68029A60
:1041B00001211846FFF7DEFCBDF8063003F00103CD
:1041C000002B14BF012300238DF81F30039B1868B8
:1041D000BDF806305B089AB29DF81F309BB21344BD
:1041E0009BB21946FFF7BAFD009B03F00103002BB9
:1041F00002D0102306930FE0009B03F00203002B74
:1042000008D09DF81F30002B01D0082300E00423C4
:10421000069301E000230693039B1B68069918464A
:10422000FFF73BFC009BDAB29DF81F30002B01D05A
:104230000C2300E0082305990398FFF721FF0346AC
:10424000184609B05DF804FBC8060020088100008C
:1042500000B583B0019000914FF488710198FFF789
:104260000AFC0346002B12D04FF488710198FFF727
:10427000EDFB009B5B7903F00403002B07D0009B50
:104280001B68002B03D0009B1B68012098474FF44C
:104290008A710198FFF7EFFB0346002B12D04FF411
:1042A0008A710198FFF7D2FB009B5B7903F008034A
:1042B000002B07D0009B1B68002B03D0009B1B68C2
:1042C000022098474FF48E710198FFF7D4FB034604
:1042D000002B12D04FF48E710198FFF7B7FB009BB3
:1042E0005B7903F01003002B07D1009B1B68002BA8
:1042F00003D0009B1B68002098474FF482710198FF
:10430000FFF7B9FB0346002B0FD04FF482710198E1
:10431000FFF79CFB009B01221A71009B1B68002B7E
:1043200003D0009B1B680320984700BF03B05DF8D3
:1043300004FB000008B503490348FFF789FF00BFED
:1043400008BD00BFC806002000C0014008B50349F1
:104350000348FFF77DFF00BF08BD00BFD006002067
:104360000010024008B503490348FFF771FF00BF82
:1043700008BD00BFD80600200020024082B00346DE
:104380008DF807309DF8073003F01F0205499DF9AD
:1043900007305B09012000FA02F241F8232000BF38
:1043A00002B0704700E100E082B0034600918DF852
:1043B00007309DF90730002B0CDA009BDAB20C496C
:1043C0009DF8073003F00F03043B5201D2B20B44B7
:1043D0001A7609E0009BDAB206499DF907305201CE
:1043E000D2B20B4483F8002300BF02B0704700BF75
:1043F00000ED00E000E100E000B583B003460A46AE
:104400008DF8073013468DF806309DF80630072BDF
:1044100003D908496B20FDF7EAF99DF806209DF9BC
:10442000073011461846FFF7BFFF00BF03B05DF825
:1044300004FB00BF4C81000000B583B003468DF83B
:1044400007309DF907301846FFF798FF00BF03B00B
:104450005DF804FB82B003468DF807309DF8073005
:1044600003F1804303F5E04301221A6000BF02B06C
:10447000704782B00346ADF80630BDF8063003F150
:10448000804303F5E0431B68002B14BF0123002386
:10449000DBB2184602B0704784B00346ADF8063070
:1044A000BDF8063003F1804303F5E04300221A60B3
:1044B000BDF8063003F1804303F5E0431B68039326
:1044C000039B00BF04B0704782B003468DF80730ED
:1044D0000B468DF8063013468DF805300A499DF8D5
:1044E00007309DF8052051331B010B4404331A603B
:1044F00005499DF807309DF8062051331B010B44F8
:104500001A6000BF02B070470070004082B0019096
:10451000034A019BC2F8043300BF02B0704700BFDA
:104520000070004082B00190034A019BC2F808333A
:1045300000BF02B0704700BF00700040024B012274
:10454000C3F8002500BF704700700040024B0022F6
:10455000C3F8002500BF70470070004082B0019092
:104560000091054A019BC2F82C36034A009BC2F811
:10457000303600BF02B070470070004082B0034682
:104580008DF80730034A9DF80730C2F8F03500BFB8
:1045900002B070470070004082B003468DF80730CB
:1045A000034A9DF80730C2F8F43500BF02B07047E7
:1045B00000700040024BD3F8F435DBB21846704768
:1045C0000070004000B583B0034600918DF80730BD
:1045D000009B1B7803F00302009B5B781B0103F038
:1045E00030031A43009B9B781B0203F4E0631A43D9
:1045F000009BDB781B0303F480531A43009B1B7959
:104600001B0403F4E0231A43009B5B791B0503F4AE
:10461000801342EA0301009B9B791B0603F0807222
:104620000A489DF807300A431B01034403F5A363BE
:104630001A60009BD979009B1A7A9DF807301846BA
:10464000FFF742FF00BF03B05DF804FB00700040BD
:1046500000B58DB04FF48270FFF70BFF0346002BBF
:1046600046D04FF48270FFF717FF8C4B93F82E3033
:1046700083F00103DBB2002B04D1884B93F82F3079
:10468000002B35D000238DF81830844B5B680793DE
:10469000824B1B899BB2ADF82030804BDB68002B2E
:1046A00003D17E4B00221A7419E07C4B1A8B7B4B92
:1046B0005A837A4BDB68794A5360784B1A8B774B75
:1046C0001A81764B0022DA60744B93F82E3083F017
:1046D0000103DBB2002B02D00020FFF7BBFE6F4BC3
:1046E0001B6806AA104698476C4B002283F82F20BF
:1046F0006A4B93F82E30002B62D04FF48070FFF796
:10470000B8FE0346002B5BD04FF48070FFF7C4FE69
:10471000624B5A8B614B93F82D309BB29A421CD955
:104720005E4B5A8B5D4B93F82D309BB2D31A9AB2E5
:104730005A4B5A83594B5A68584B1B899BB219469E
:10474000564B5B8BCB1A5B001344544A92F82D20D6
:1047500011461846FFF702FF2BE0504B5A8B4F4B88
:1047600093F82D309BB29A4214D14C4BDB68002B4E
:1047700010D04A4B012283F82F20484B00225A8345
:10478000464BDB68454A92F82D2011461846FFF744
:10479000E5FE0EE0414B5A8B404B93F82D309BB217
:1047A0009A4206D13D4B012283F82F203B4B002239
:1047B0005A834FF48270FFF76FFE0420FFF74AFE22
:1047C0004FF48870FFF755FE0346002B0ED04FF4D0
:1047D0008870FFF761FE314B00221A7402238DF8B6
:1047E0000C302E4B1B6803AA104698474FF48A7072
:1047F000FFF73FFE0346002B07D04FF48A70FFF708
:104800004BFE264B00221A7444E0244B5B690B9349
:104810003DE00B9BB3FA83F30A934FF000420A9BEF
:1048200022FA03F3DB430B9A13400B930A9B9BB2D0
:1048300046339BB29B00ADF82630BDF826301846B3
:10484000FFF717FE0346002B21D0BDF8263018468F
:10485000FFF722FE01238DF80030BDF82630A3F5C6
:104860008C73DB08DBB28DF80430BDF82630A3F57D
:104870008C7303F00403002B0CBF01230023DBB275
:104880008DF80530054B1B686A46104698470B9B10
:10489000002BBED100BF0DB05DF804FBE006002088
:1048A00000B585B001900091019B002B03D13249E6
:1048B000D620FCF79CFF009B002B03D12E49D7206C
:1048C000FCF795FF2D4B93F82C30002B03D00823D9
:1048D0000393039B4CE0294A009B1360019B1B78C8
:1048E0001846FFF74BFE019B5B781846FFF754FE16
:1048F000019BDA78214B83F82E20204B012283F88C
:104900002C201E4B00221A741C4B002283F82D20F1
:104910001A4B00225A61194B002283F82F206FF0A6
:104920000040FFF7FFFD4FF48270FFF7B5FD4FF435
:104930008070FFF7B1FD4FF48A70FFF7ADFD019B6A
:104940009B7819460720FFF757FD0720FFF774FDF6
:104950000220FFF7DBFD094B93F82E30002B02D02D
:104960000120FFF7D3FDFFF7E9FD00230393039B2D
:10497000184605B05DF804FBB4810000E006002095
:1049800000B585B0034600918DF80730434B93F88E
:104990002C30002B04D1424940F22310FCF727FFB2
:1049A0009DF80730072B04D93D494FF49270FCF76E
:1049B0001EFFFFF7FFFD0346002B09D0374B93F88E
:1049C0002D30002B04D036494FF49370FCF70FFFC5
:1049D000009BDB79092B03D8009BDB79002B04D1EA
:1049E0002F494FF49470FCF702FF009B1B7A092BB0
:1049F00004D92B494FF49570FCF7F9FE274B1B7C2B
:104A0000DBB2002B03D011230393039B41E0009BF7
:104A10001B79002B03D0009B1B79012B01D1FFF7E1
:104A200095FD9DF807301D4A0C335B0013441B793C
:104A3000002B07D1194B93F82D300133DAB2174B05
:104A400083F82D209DF80730009AD179134A0C3352
:104A50005B0013440A461A719DF80730009A117AD8
:104A60000E4A0C335B0013440A465A719DF8073016
:104A700000991846FFF7A6FD009B1B79002B03D079
:104A8000009B1B79012B01D1FFF758FD00230393F5
:104A9000039B184605B05DF804FB00BFE00600204C
:104AA000B481000000B585B001900B46ADF802302E
:104AB0004C4B93F82C30002B04D14B4940F2BF10E3
:104AC000FCF795FEBDF80230464A92F82D2093FB84
:104AD000F2F102FB01F29B1A002B04D042494FF481
:104AE000E070FCF784FE1220FFF71CFD3D4B1B7CA1
:104AF000DBB2022B06D11220FFF708FD112303932E
:104B0000039B6BE0374B1B7CDBB2012B35D1354B64
:104B1000DB68002B06D00220FFF7F8FC112303937B
:104B2000039B5BE02F4A019BD3602E4ABDF8023005
:104B300013832C4B93F82E3083F00103DBB2002B50
:104B400014D000BF4FF48070FFF793FC034683F04E
:104B50000103DBB2002BF5D14FF48070FFF79CFC12
:104B6000BDF8023019460198FFF7F8FC0220FFF764
:104B7000CDFC00230393039B30E00220FFF7C6FC2B
:104B8000184B01221A74174A019B5360154ABDF84D
:104B900002301381134B0022DA60124B93F82E304F
:104BA000002B0BD00F4ABDF8023053830D4B93F806
:104BB0002D3019460198FFF7D1FC0CE0BDF802300A
:104BC00019460198FFF7CAFC4FF48070FFF764FCA8
:104BD0000020FFF73FFC00230393039B184605B01A
:104BE0005DF804FBE0060020B481000000B583B04E
:104BF000124B93F82C30002B04D1114940F20A20BB
:104C0000FCF7F5FD002301930C4B1B7CDBB2012B61
:104C100002D0082301930BE0084B93F82E30002BB1
:104C200003D00020FFF716FC02E00420FFF712FC7F
:104C3000019B184603B05DF804FB00BFE0060020AE
:104C4000B481000082B003468DF807309DF807302C
:104C500003F01F0205499DF907305B09012000FAA6
:104C600002F241F8232000BF02B0704700E100E0EB
:104C700082B003468DF807309DF8073003F01F021D
:104C800006499DF907305B09012000FA02F2203342
:104C900041F8232000BF02B0704700BF00E100E0F0
:104CA00082B003468DF807309DF8073003F01F02ED
:104CB00006499DF907305B09012000FA02F24033F2
:104CC00041F8232000BF02B0704700BF00E100E0C0
:104CD00082B003468DF807309DF8073003F01F02BD
:104CE00006499DF907305B09012000FA02F26033A2
:104CF00041F8232000BF02B0704700BF00E100E090
:104D000082B0034600918DF807309DF90730002BE3
:104D10000CDA009BDAB20C499DF8073003F00F0360
:104D2000043B5201D2B20B441A7609E0009BDAB27E
:104D300006499DF907305201D2B20B4483F8002393
:104D400000BF02B0704700BF00ED00E000E100E0EE
:104D500000B585B00190019B002B0AD0074B43F0B2
:104D600001030393019B9B010293039B02989847C5
:104D700000E000BF05B05DF804FB00BF008200004A
:104D800000B583B00190064A019BC2F808350621A0
:104D90001120FFF7B5FF00BF03B05DF804FB00BFB3
:104DA0000010014008B50D4B4FF48032C3F8442386
:104DB0000A4B4FF48032C3F804231120FFF788FF19
:104DC0001120FFF73FFF054B01221A602F20FFF74C
:104DD000BFFF034B01221A7000BF08BD0010014045
:104DE0002E08002008B51120FFF742FF0E4B4FF4AC
:104DF0008032C3F848230C4B4FF48032C3F80823A9
:104E0000094B01225A602F20FFF7A2FF064B012217
:104E10009A60064B00221A602F20FFF799FF044B7F
:104E200000221A7000BF08BD0010014020080020B9
:104E30002E080020024BD3F804351846704700BFF7
:104E40000010014082B001900091019A009BD31A9A
:104E500023F07F43184602B07047000082B00190F3
:104E6000034A019BC2F8403500BF02B0704700BF43
:104E70000010014086B00190284B1B68002B03D125
:104E8000264A019B136045E0019B1A68234B1B686F
:104E90001B689A4210D8214B1B681968019B1A683D
:104EA0001E4B1B688A1A1A601C4B1A68019BDA6138
:104EB0001A4A019B13602DE0019B1B680393174B5B
:104EC0001B680593154B1B68049309E0049B1B6842
:104ED000039AD31A0393049B0593049BDB69049301
:104EE000049B002B04D0049B1B68039A9A42EDD8C4
:104EF000049B002B05D0049B1A68039BD21A049BC9
:104F00001A60019B039A1A60019B049ADA61059B5F
:104F1000019ADA6100BF06B0704700BF1C0800208C
:104F200000B587B001902A4B1B680393284B1B6880
:104F30000593059B049308E0049A019B9A4208D0CC
:104F4000049B0593049BDB690493049B002BF3D122
:104F500000E000BF049B002B01D1002333E0059A41
:104F6000049B9A4214D11A4B1B68DB69184A1360E0
:104F7000174B1B68002B0BD1164B01229A60164B66
:104F800000221A60154B01221A702F20FFF7E0FE55
:104F9000049B1B680293049BDA69059BDA61059BFD
:104FA000DB690493049B002B05D0049B1A68029BC9
:104FB0001A44049B1A60064B1B68039A9A4214BF5A
:104FC00001230023DBB2184607B05DF804FB00BFE5
:104FD0001C08002000100140200800202F0800209D
:104FE00008B51120FFF75CFE00BF08BD08B514200E
:104FF000FFF756FE00BF08BD00B583B00190019BCE
:105000005B69019A92691046984700BF03B05DF84A
:1050100004FB000000B585B02B4B1B68002B4ED065
:1050200000230193FFF706FF0246284B1B68194631
:105030001046FFF707FF0290234B1B6803931DE008
:10504000039B1B68029A9A421CD3039B1B68029A1B
:10505000D31A0293039B1B68019A13440193039B89
:105060000093039BDB690393009B1B7C002B05D003
:10507000009B00221A740098FFF7BEFF039B002BD1
:10508000DED100E000BF124B1A78124B1B789A4217
:105090000CD1104B1B780133DAB20E4B1A700D4B4A
:1050A0001B78022B02D10B4B00221A70094B1B7884
:1050B0001946094A019B42F82130FFF797FF00BFCC
:1050C00005B05DF804FB00BF1C080020200800208C
:1050D0002C0800202D0800202408002082B0019018
:1050E000184B1A78184B1B789A4223D0154B1B7813
:1050F0000133DAB2134B1A70124B1B78022B02D118
:10510000104B00221A700F4B1B781A460F4B53F8A6
:105110002220019B1A60019B1A680D4B1B681344E7
:105120000B4A13600A4B1B6823F07F43084A136045
:10513000012303E0019B00221A600023184602B0FD
:10514000704700BF2C0800202D08002024080020F4
:105150002008002088B00390029101920023079359
:1051600038E0204B1B680693069B1B68039A9A4203
:1051700006D2069B1A68039BD21A069B1A602EE081
:10518000069B1B68039AD31A0393069B1B68079A16
:1051900013440793069B00221A60124B1B68059369
:1051A000069BDB690F4A1360069BDB68002B11D05E
:1051B000029A079B134423F07F42069B5A60069B8A
:1051C000DA68069B9A60019B1A68069BDA61019B6C
:1051D000059A1A60034B1B68002BC2D100BF00BFA9
:1051E00008B070471C08002000B589B0019000236A
:1051F0008DF81F30664B1B680593AAE0019B002BBE
:1052000005D0019B0693069BDB69019361E0614B2E
:105210001B781A4613465B001344DB005D4A1344B7
:10522000043304935B4B1B780133DAB2594B1A7089
:10523000584B1A78574B9B789A4202D1554B002213
:105240001A70049B5B680693049B1B78032B1ED08B
:10525000032B7EDC012B1FD0022B7AD1049B5B68D1
:105260001846FFF75DFE0346002B02D001238DF8A0
:105270001F30069B00221A746BE0454B1B6803939A
:10528000039B00221A74039BDB69414A1360404B65
:105290001B68002BF1D15CE000BF069B1B7C002B40
:1052A00000D056E0049B9A68069B5A60049BDA681B
:1052B000069B9A60049B1A69069BDA60049B5A69F4
:1052C000069B9A61344B1B78002B02D0069B002270
:1052D0005A60069B5A68314B1B68D31A23F07F43F0
:1052E0002F4A93420ED8069B5B682C4A12681146DF
:1052F0001846FFF7A7FD0246069B9B681A44069BCB
:105300001A6017E0254B1A68069B5B681946104621
:10531000FFF798FD0290069B9B68029A9A4206D27C
:10532000069B9A68029BD21A069B1A6002E0069BB3
:1053300000221A60069B00225A60069B00229A6097
:10534000069B01221A74069B0022DA610698FFF779
:1053500091FD019B002B7FF451AF0E4B1A780D4B42
:105360005B789A427FF44AAF9DF81F30002B04D13E
:10537000074B1B68059A9A4201D0012300E00023E5
:1053800003F00103DBB2184609B05DF804FB00BF6F
:105390001C080020100700202F08002020080020F3
:1053A000FEFF7F0010B588B00190274B1B68002BD3
:1053B00044D0254B1B681B680793FFF73BFD069005
:1053C000224B1B68059305990698FFF73BFD0346A2
:1053D000033304931E4B1B7883F00103DBB2002BD5
:1053E00001D0FFF7DFFC049A079B934238BF1346B6
:1053F000059A13440593059B23F07F430593059875
:10540000FFF72CFDFFF716FD039006990398FFF7B1
:1054100019FD0346DC1C06990598FFF713FD0346AA
:105420009C420DD9FFF706FD03461846FFF716FD0F
:105430002F20FFF78DFCFFF7D3FD01E0FFF7D2FC33
:1054400000BF08B010BD00BF1C08002020080020CD
:105450002E08002000B587B00023019300238DF8AB
:105460001730194B1B680493184B1B6803936B464A
:105470001846FFF733FE03468DF80B309DF80B30CE
:10548000002B08D0009B01AA04991846FFF762FE82
:1054900001238DF81730019B1846FFF7A5FE034640
:1054A000002B02D001238DF817309DF81730002B08
:1054B00002D00398FFF776FF054B00221A7000BF59
:1054C00007B05DF804FB00BF200800201C08002086
:1054D0002F08002082B003468DF80730034A9DF85C
:1054E0000730537000BF02B0704700BF10070020A4
:1054F00084B00190144B5B7801338DF80F30124B60
:105500009B789DF80F209A4202D100238DF80F302E
:105510000D4B1B789DF80F209A4201D100230FE01C
:10552000019B9DF80F201A70074B5B781A461346B3
:105530005B001344DB00044A134404330293029BD0
:10554000184604B0704700BF1007002000B589B0AE
:105550000390029101920093002307930020FCF72F
:10556000FFF80DF117031846FFF7C2FF0690069BE0
:10557000002B02D10423079318E0069B01221A7026
:10558000069B039A5A60FFF755FC0246069B9A60F9
:10559000069B029ADA60069B019A1A61069B009AA2
:1055A0005A619DF817301846FFF794FF0020FCF76A
:1055B000EBF8079B002B01D1FFF718FD079B18465E
:1055C00009B05DF804FB000008B50E4B0022C3F8DB
:1055D00040210C4B0022C3F844210A4B0022C3F89F
:1055E0004821084B0022C3F84C21064B0022C3F887
:1055F0000021044B0022C3F80421FFF70BFD00BF7C
:1056000008BD00BF0010014008B5FFF723FF00BF31
:1056100008BD000008B5FFF7E5FB134B00221A7028
:10562000114B00225A70104B0B229A700F4B002224
:105630001A600F4B00221A700E4B00221A701420B1
:10564000FFF746FB06211420FFF75AFB1420FFF753
:10565000F9FA0020FFF794FBFFF7ECFB0346064A3C
:1056600013600023184608BD100700201C08002006
:105670002C0800202D0800202008002086B0039070
:105680000B4601928DF80B30134B9B78002B01D108
:1056900008231EE0019B002B01D1072319E0039B87
:1056A000002B01D1072314E0039B1B681B7C002BFC
:1056B00001D008230DE0039B1B680593059B002286
:1056C0001A74059B9DF80B205A74059B019A5A6128
:1056D0000023184606B070471007002000B587B0B9
:1056E000039002910192039B0593164B9B78002B2C
:1056F00001D1082322E0039B002B01D108231DE0E8
:10570000029B042B03D9029BB3F1807F01D30723B3
:1057100014E0059B5B69002B01D108230EE0059B7B
:105720005B7C012B01D1029B00E000230493019BD1
:10573000049A02990598FFF709FF0346184607B037
:105740005DF804FB1007002000B583B0002301932F
:10575000104B1B78002B02D08523019314E00D4BD6
:1057600000229A600B4B00225A600A4B00221A61F9
:10577000084B0022DA60084800F0E0FC019000F0DD
:1057800003FD044B01221A70019B184603B05DF81B
:1057900004FB00BF30080020DD58000084B00190F9
:1057A0000091019B1B68039306E0039A009B9A42B9
:1057B0000DD0039B1B680393039B002BF5D1019B2A
:1057C0001A68009B1A60019B009A1A6000E000BFF3
:1057D00004B0704784B00190019B1B680393039B46
:1057E000002B03D0039B1A68019B1A60039B184689
:1057F00004B0704700B583B00190224B1B78002B9A
:1058000003D12149E920FBF7F2FF1E4B9B78DBB265
:10581000002B12D0019B002B03D0019B5B68012061
:1058200098470020FBF79CFF164BDB680133154AB5
:10583000D3600020FBF7A8FF17E00020FBF790FFE4
:10584000019B002B03D001991048FFF7A7FF0D4BD8
:10585000DB68002B01D100F0B1FC0A4BDB6801339F
:10586000084AD3600020FBF78FFF064BDB68002B54
:1058700004D1054940F20510FBF7B9FF00BF03B0A2
:105880005DF804FB30080020108200004008002072
:1058900000B585B003468DF807309DF80730002B22
:1058A00002D10C4B039301E00B4B03930398FFF7DA
:1058B00091FF0290029B002B06D0029B5B689DF833
:1058C000072010469847F1E700BF00BF05B05DF81C
:1058D00004FB00BF380800204008002000B583B05A
:1058E00003468DF807309DF80730002B05D10A4B91
:1058F00001225A700020FFF7CBFF9DF80730012BE3
:1059000005D1054B01229A700120FFF7C1FF00BFAE
:1059100003B05DF804FB00BF3008002082B00346EE
:105920008DF807309DF8073003F01F0205499DF9F7
:1059300007305B09012000FA02F241F8232000BF82
:1059400002B0704700E100E082B0034600918DF89C
:1059500007309DF90730002B0CDA009BDAB20C49B6
:105960009DF8073003F00F03043B5201D2B20B4401
:105970001A7609E0009BDAB206499DF90730520118
:10598000D2B20B4483F8002300BF02B0704700BFBF
:1059900000ED00E000E100E000B583B003460A46F8
:1059A0008DF8073013468DF806309DF80630072B2A
:1059B00003D908496B20FBF71AFF9DF806209DF9D3
:1059C000073011461846FFF7BFFF00BF03B05DF870
:1059D00004FB00BF5882000000B583B003468DF879
:1059E00007309DF907301846FFF798FF00BF03B056
:1059F0005DF804FB84B0039002910192039B029A2C
:105A000002F5A872019943F8221000BF04B0704754
:105A100082B001900091019B009AC3F8042300BF5B
:105A200002B0704782B001900091019B009AC3F8C8
:105A3000082300BF02B0704782B001900091019B23
:105A4000D3F80423009B1340184602B0704782B07D
:105A500001900B46ADF80230BDF80230019A1344B4
:105A60001B68184602B0704784B001900B46ADF831
:105A70000230BDF80230019A134400221A60BDF8CA
:105A80000230019A13441B680393039B00BF04B0C8
:105A9000704782B00190019BD3F80435184602B0DC
:105AA0007047000000B583B001900091009BB3F5F2
:105AB000805F04D306494FF4BE70FBF798FE019B4C
:105AC000009AC3F8082500BF03B05DF804FB00BFCF
:105AD0008882000082B001900B468DF803309DF85B
